:100000000C9468010C947A010C947A010C94702C75
:100010000C94362C0C947A010C947A010C947A018D
:100020000C947A010C947A010C947A010C94B52CFE
:100030000C947A010C947A010C947A010C947A0154
:100040000C949F2C0C947A010C94EC2E0C948C2F15
:100050000C947A010C947A010C947A010C947A0134
:100060000C947A010C947A01084AD73B3BCE016E7E
:1000700084BCBFFDC12F3D6C74319ABD56833DDAFF
:100080003D00C77F11BED9E4BB4C3E916BAAAABE0E
:10009000000000803F05A84CCDB2D44EB93836A937
:1000A000020C50B9918688083CA6AAAA2ABE000074
:1000B00000803F000D0A4772626C20312E316720AC
:1000C0005B27242720666F722068656C705D0D0ABF
:1000D00000244E005B4F50543A005B5645523A3173
:1000E0002E31672E32303138313131323A005B54A3
:1000F0004C4F3A005B4739323A0033300032380017
:100100005B4700204700204D002053002046002080
:10011000540033382E005B47433A47005B484C504D
:100120003A242420242320244720244920244E201C
:1001300024783D76616C20244E783D6C696E652094
:10014000244A3D6C696E652024534C502024432082
:100150002458202448207E2021203F206374726C84
:100160002D785D0D0A00414C41524D3A007C413AD8
:10017000007C4F763A007C57434F3A007C506E3AF1
:10018000007C46533A007C42663A007C57506F73BD
:100190003A007C4D506F733A00536C6565700044B3
:1001A0006F6F723A00436865636B00416C61726DFA
:1001B00000486F6D65004A6F6700486F6C643A00D5
:1001C00052756E0049646C650000007A4300007A45
:1001D0004300007A430000FA430000FA430000FAAB
:1001E0004300A00C4700A00C4700A00C47000048AB
:1001F000C3000048C3000048C30A000019010AD721
:10020000233C6F12033B00007A4400000000000012
:100210000000C8410000FA43FA000000803F0D0AC8
:10022000005B5052423A006572726F723A006F6B17
:100230000D0A00536C656570696E670052657374D2
:100240006F72696E67207370696E646C65005265C9
:1002500073746F72696E672064656661756C747320
:100260000050676D20456E6400436865636B204CE9
:10027000696D69747300436865636B20446F6F72C6
:100280000044697361626C656400456E61626C650F
:10029000640043617574696F6E3A20556E6C6F63CC
:1002A0006B656400272448277C2724582720746F17
:1002B00020756E6C6F636B00526573657420746F8C
:1002C00020636F6E74696E7565005B4D53473A002D
:1002D00011241FBECFEFD8E0DEBFCDBF27E0A0E0E6
:1002E000B1E001C01D92A136B207E1F70E94B62F1E
:1002F0000C94FB390C9400008F929F92AF92BF92A6
:10030000CF92DF92EF92FF920F931F93CF93DF93E1
:100310007C016B01DC01EC91F0E0EF5EF84F808135
:10032000EF018D3229F52296818101E0912CF0E0D8
:1003300010E020E030E0A9015E01E0EDE80FEA30D6
:1003400018F5FF5FF930E0F491101150A5E0B0E02E
:100350000E94D4399B01AC01220F331F441F551F4B
:100360002E0F311D411D511D2196D5018C91E4CFD9
:100370008B3219F0219600E0D9CF22968181FBCFF4
:10038000911006C01F5FF0CFEE3F29F4911003C01B
:1003900099249394E9CFFF23F9F0CA01B9010E948F
:1003A000D3364B015C0120E030E0A9010E942136E8
:1003B00081112BC0002309F445C0B7FAB094B7F8F7
:1003C000B094F60180829182A282B382C151D7405B
:1003D000C150F701C083F1E08F2FDF91CF911F91C2
:1003E0000F91FF90EF90DF90CF90BF90AF909F90D4
:1003F0008F9008952AE037ED43E25CE3C501B40134
:100400000E9483384B015C011E5F1F3F9CF31F3F1E
:1004100059F42DEC3CEC4CEC5DE3C501B4010E94B9
:1004200083384B015C01C6CF112321F220E030E07C
:1004300040E251E4C501B4010E9483384B015C01E4
:100440001150F2CFD6018D929D92AD92BC9213972E
:10045000BDCF2FB7F89490911606892B809316067E
:100460002FBF08952FB7F89490911506892B80938C
:1004700015062FBF08959FB7F894809314069FBF69
:1004800008959FB7F8942091130680958223809356
:1004900013069FBF08952FB7F89490911306892BE8
:1004A000809313062FBF0895AF92BF92CF92DF9231
:1004B000EF92FF920F931F93CF93DF93EC0106E629
:1004C00016E05C018CE0A80EB11CC990D990E990AF
:1004D000F99020E030E0A901C701B6010E9443383D
:1004E0001816DCF0F80121913191419151918F0161
:1004F000C701B6010E94213687FD0FC0CA15DB0572
:1005000021F780E0DF91CF911F910F91FF90EF9045
:10051000DF90CF90BF90AF90089581E0F3CF8F929E
:100520009F92AF92BF92CF92DF92EF92FF920F9382
:100530001F93CF93DF93EB0122E4E22E26E0F22E0D
:100540008C016B018CE0C80ED11C69917991899165
:100550009991F70181909190A190B1907F010E94B3
:10056000D536A50194010E942B36F8016193719351
:10057000819391938F01CC15DD0539F7DF91CF91F0
:100580001F910F91FF90EF90DF90CF90BF90AF90B1
:100590009F908F90089596B1892F877039F0892F99
:1005A0008095817091FF826092FF8460089510921F
:1005B00017069091870697FD03C090E29093170667
:1005C000882331F08091170690E2892780931706DF
:1005D000089593B18091870686FF0BC0967159F0FC
:1005E00091FB882780F992FD8260907129F08460E8
:1005F00008959095F3CF80E00895EBE6F0E08081D8
:10060000897E8083E8E6F0E080818E7F8083089594
:1006100084B1897E84B985B1866185B98091870668
:1006200083FF0BC080916B00866180936B0080918B
:10063000680081608093680008950C94FD026F92B9
:100640007F928F929F92AF92BF92CF92DF92EF9262
:10065000FF920F931F93CF93DF93EB018C015B010C
:100660008CE0A80EB11C89E9682E96E7792E26E960
:10067000822E3EE7932EC990D990E990F99020E020
:1006800030E0A901C701B6010E9421368823B9F0E4
:10069000A7019601F80160817181828193810E9496
:1006A0002B366B017C01E894F7F89301A401C70194
:1006B000B6010E944338181614F0360147010C5F4A
:1006C0001F4FCA15DB05B9F6B301C401DF91CF9105
:1006D0001F910F91FF90EF90DF90CF90BF90AF9060
:1006E0009F908F907F906F900895E7EFF5E0A8E1DD
:1006F000B6E04D915D916D917C911397408351834C
:100700006283738314964D915D916D917C911797DF
:10071000448355836683778318968D919D910D90C0
:10072000BC91A02D80879187A287B3870895BF923F
:10073000CF92DF92EF92FF920F931F93CF93DF93AD
:100740007C01FC0102A513A5D4A5C5A5818980FF64
:1007500033C06091390670E090E080E00E94D536A9
:100760002AE037ED43E25CE30E9483389B01AC0151
:10077000B8018D2F9C2F0E9483388B01D82FC92F51
:1007800020E030E040E85FE3B8018D2F9C2F0E940D
:100790004338181624F000E010E0D0E8CFE3B801A9
:1007A0008D2F9C2FDF91CF911F910F91FF90EF9094
:1007B000DF90CF90BF90089582FD17C060913806FA
:1007C00070E090E080E00E94D5362AE037ED43E209
:1007D0005CE30E9483389B01AC01B8018D2F9C2FF4
:1007E0000E9483388B01D82FC92FF701B6A0C7A06C
:1007F000D0A4F1A498014D2F5C2F6B2D7C2D8D2D55
:100800009F2D0E94213687FFBBCF0B2D1C2DDD2D88
:10081000CF2DB6CF8091D5029091F605981739F07B
:1008200022E3829FC00111248A529D4F089590E0D7
:1008300080E00895F894F999FECF92BD81BD81E0E2
:100840008FBB20B5862F8227082E000C990B50E015
:1008500086239523892B49F084E16F3F11F060BD19
:1008600084E08FBBF99A789408952617E1F360BD70
:1008700084E2F7CF9F92AF92BF92CF92DF92EF9236
:10088000FF920F931F93CF93DF935C018A017B014B
:10089000E40EF51EEB01912C6C01C61AD70ACE01AD
:1008A0008C0D9D1D21E0911007C0292D990C330B53
:1008B000232F221F2227221F6991962E920E0E941B
:1008C0001A04CE15DF0559F7692DC501800F911F58
:1008D000DF91CF911F910F91FF90EF90DF90CF901C
:1008E000BF90AF909F900C941A046AE090E080E073
:1008F0000E941A0445E550E062E476E081E090E071
:100900000C943A04F999FECF92BD81BD81E08FBB72
:1009100080B508959F92AF92BF92CF92DF92EF92EF
:10092000FF920F931F93CF93DF935B018A017C01AA
:10093000E40EF51EEC01912C6B01C81AD90AC60110
:100940008C0F9D1F0E94820421E0911007C0292D69
:10095000990C330B232F221F2227221F982E920E31
:100960008993CE15DF0559F7C501800F911F0E94AD
:10097000820421E030E0891511F030E020E0C90167
:10098000DF91CF911F910F91FF90EF90DF90CF906B
:10099000BF90AF909F900895CF93DF93C091D10205
:1009A000D091D2022097C9F08091A20281608093F9
:1009B000A2026091B8027091B9028091BA0290913E
:1009C000BB029B01AC010E9483386A8B7B8B8C8BB2
:1009D0009D8B1092D2021092D102DF91CF91089597
:1009E0002F923F924F925F926F927F928F929F923F
:1009F000AF92BF92CF92DF92EF92FF920F931F932D
:100A0000CF93DF9300D000D0CDB7DEB70091F605CD
:100A1000002309F486C0098339813150398310914C
:100A2000D302131709F466C0C32ED12CE2E33E9F14
:100A3000C00111249C012A523D4F7901F9017688A9
:100A40008788908CA18C628D738D848D958D9B0190
:100A5000AC010E942C35F701268D378D40A151A1A4
:100A60000E948338B62EE72EF82E9B83262F372F31
:100A7000482F592F672D782D892D9A2D0E942136C8
:100A800087FF03C0B72C7401AB8282E38C9DF00119
:100A90008D9DF00D1124EA52FD4F8B2D9E2DAF2D13
:100AA000BB81828B938BA48BB58BF9818F2FF11136
:100AB00001C080E1FF24FA94F80E3090D5021F1196
:100AC00033C0131102C00E94CC04E2E31E9FC00198
:100AD00011248A529D4F9A83898333243394310E93
:100AE000F0E13F1201C0312C82E3282E031185C0B2
:100AF0001093D3020F900F900F900F90DF91CF9132
:100B00001F910F91FF90EF90DF90CF90BF90AF902B
:100B10009F908F907F906F905F904F903F902F901D
:100B2000089520E1298378CF298182E3289F9001CD
:100B300011242A523D4F3C832B8322E3E22E8F2C3B
:100B4000912CFE9CC0011124FC01EA52FD4FFA8356
:100B5000E983F11002C090E1F92EFA94F31002C07B
:100B60000E94CC04E89CC001E99C900D11249C01DA
:100B70002A523D4F6901F90146885788608C718C73
:100B8000A301920162897389848995890E94213623
:100B9000882339F1F601628D738D848D958D9B01CB
:100BA000AC010E942C35F601268D378D40A151A154
:100BB0000E948338EB81FC812289338944895589DD
:100BC0000E942C354B015C01AC019B01C301B201B9
:100BD0000E944338F60118165CF4828A938AA48A2C
:100BE000B58A29813A813C832B831F11A8CF6DCF11
:100BF000428A538A648A758AF4CFC32CD12C329CE2
:100C0000C00111249C012A523D4F7901E981FA81EA
:100C10004288538864887588F90182889388A488FB
:100C2000B588A5019401C301B2010E94213687FF56
:100C300026C0E981FA81628D738D848D958D9B012B
:100C4000AC010E942C35E981FA81268D378D40A1B7
:100C500051A10E948338A30192010E942C352B01DF
:100C60003C01AC019B01C501B4010E944338181638
:100C700034F4F701428A538A648A758A132D2C9CB6
:100C8000F0012D9CF00D1124EA52FD4F2689378981
:100C9000408D518D62897389848995890E9421369E
:100CA000811101C0132D3394F0E13F1201C0312CAA
:100CB000FA82E9821BCF90917306492F80917406C6
:100CC000282F90FF11C094E080FF10C080E241FD0A
:100CD000986021FD806442FD906122FD80689093C0
:100CE000F2018093F301089590E0EECF80E0EFCF22
:100CF0008091870682FF13C0289A8091F201809329
:100D00000302809172068250990B880F819580931F
:100D1000020280916F00826080936F00089528988E
:100D2000ECCF0E940A04892B19F082E00C944B024C
:100D30000895E091040191E09E0F993609F490E046
:100D400020916E01291761F0F0E0EB5FFE4F808388
:100D5000909304018091C10080628093C10004C01F
:100D60002091130624FFECCF0895CF93DF93C1E1C8
:100D7000D7E08991811103C0DF91CF9108950E943E
:100D80009906F7CF8F929F92AF92BF92CF92DF9248
:100D9000EF92FF920F931F93CF93DF93CDB7DEB700
:100DA0002D970FB6F894DEBF0FBECDBF6B017C014F
:100DB000042F20E030E0A9010E94213687FF07C000
:100DC0008DE20E949906F7FAF094F7F8F094102F4C
:100DD000123008F054C000FF0AC020E030E040E2CA
:100DE00051E4C701B6010E9483386B017C0120E009
:100DF00030E040E05FE3C701B6010E942C350E945D
:100E00009D3610E03AE0832E912CA12CB12CE12FDD
:100E1000F0E06115710581059105E9F581E090E04B
:100E20008C0F9D1FE80FF91F80E3101708F445C0D1
:100E3000101309C0E1E0F0E0EC0FFD1FE10FF11D20
:100E400080E380831F5FEE24E394F12CEC0EFD1E03
:100E5000E10EF11C111134C02D960FB6F894DEBFCF
:100E60000FBECDBFDF91CF911F910F91FF90EF90FB
:100E7000DF90CF90BF90AF909F908F90089520E02B
:100E800030E048EC52E4C701B6010E9483386B01A0
:100E90007C0112509DCFEE24E394F12CEC0EFD1E4C
:100EA000EE0EFF1EA50194010E94AC39605DF701B2
:100EB0006083B901CA011F5FAACF1F5F8193B5CFBD
:100EC000101303C08EE20E949906F70182917F0100
:100ED0000E9499061150BECF2091870640E020FF66
:100EE00007C02BE832E441E25DE30E94833841E031
:100EF0000C94C2062091870643E020FF07C02BE830
:100F000032E441E25DE30E94833844E00C94C2067F
:100F10000F931F93CF938C01C0E0F8016191719101
:100F2000819191918F010E947A07C23019F08CE271
:100F30000E949906CF5FC33081F7CF911F910F9127
:100F40000895CF93DF93843658F06AE00E948C397D
:100F5000C0E3C90F6AE00E948C39D0E3D90F04C006
:100F6000C0E0D0E08A30B0F7805D0E949906DD23B2
:100F700019F08D2F0E949906CC2329F08C2FDF9138
:100F8000CF910C949906DF91CF910895CF93DF9381
:100F9000EC01FE0184912196811103C0DF91CF9174
:100FA00008950E949906F5CF8EE192E00C94C60751
:100FB000CF93C82F87E292E00E94C6078C2F0E9431
:100FC000A107CF910C94D407811104C08EE292E066
:100FD0000C94C6070C94D807CF92DF92EF92FF9241
:100FE000CF93DF93D82F6A017B01C22F84E20E9446
:100FF00099068D2F0E94A1078DE30E9499064C2F20
:10100000C701B6010E94C206DF91CF91FF90EF9019
:10101000DF90CF900C94D407CF93DF93D82FC62FB7
:1010200084E20E9499068D2F0E94A1078DE30E9401
:1010300099068C2F0E94A107DF91CF910C94D407C1
:10104000EF92FF920F931F93CF93DF9360917206FD
:1010500070E080E00E940C086091750670E081E00D
:101060000E940C086091730670E082E00E940C08F8
:101070006091740670E083E00E940C08609187061E
:1010800062FB662760F970E084E00E940C086091C2
:10109000870666FB662760F970E085E00E940C0811
:1010A00080918706082E000C990B692F661F662712
:1010B000661F70E086E00E940C086091760670E082
:1010C0008AE00E940C084091770650917806609162
:1010D000790670917A0623E08BE00E94EC0740913C
:1010E0007B0650917C0660917D0670917E0623E020
:1010F0008CE00E94EC0760918706617070E08DE0E3
:101100000E940C086091870665FB662760F970E015
:1011100084E10E940C086091870663FB662760F9F2
:1011200070E085E10E940C0860918706629561700D
:1011300070E086E10E940C086091880670E087E10B
:101140000E940C084091890650918A0660918B0696
:1011500070918C0623E088E10E94EC0740918D0697
:1011600050918E0660918F067091900623E089E180
:101170000E94EC0760919106709192068AE10E94AC
:101180000C084091930650919406609195067091D9
:10119000960623E08BE10E94EC0740917F06509178
:1011A0008006609181067091820620E08EE10E94A7
:1011B000EC074091830650918406609185067091FA
:1011C000860620E08FE10E94EC0760918706669515
:1011D000617070E080E20E940C0884E6F82E10E056
:1011E000C2E4D6E000E0E02EEF0C123011F1133033
:1011F00069F11130C9F0488159816A817B8123E00E
:101200008E2D0E94EC070F5F2496033061F78AE071
:10121000F80E1F5F8CE8F812E3CFDF91CF911F919A
:101220000F91FF90EF9008954C855D856E857F85C9
:10123000E6CF20E030E041E655E4688D798D8A8D77
:101240009B8D0E942B36AB01BC01D9CF4CA15DA177
:101250006EA17FA17058D3CF8DE50E9499060C94A2
:10126000D407CF93DF93CDB7DEB72C970FB6F894A2
:10127000DEBF0FBECDBF81E292E00E94C60764E2EE
:1012800076E0CE0101960E948F02CE0101960E9467
:1012900088078AE30E949906809136060E94A1077A
:1012A0000E942C092C960FB6F894DEBF0FBECDBF5E
:1012B000DF91CF91089590913206911105C086FF7C
:1012C00004C0439A10923C0608954398FBCF809344
:1012D000B300811106C08091B0008F778093B00079
:1012E00008958091B0008068F9CFE0EBF0E0808154
:1012F0008F7780832D980895239A83E08093B000A0
:1013000084E08093B100259A209183063091840671
:10131000409185065091860660917F067091800607
:1013200080918106909182060E942B359B01AC0131
:1013300060E070E08EE793E40E942B36609300013A
:101340007093010180930201909303010C9475093D
:1013500068E176E08FEA96E00C948F02E7EFF5E023
:101360008CE1DF011D928A95E9F71092D502109267
:10137000F60581E08093D4021092D30208954F9233
:101380005F926F927F92AF92BF92CF92DF92EF9275
:10139000FF920F931F93CF93DF93EC015C012CE03E
:1013A000A20EB11C8C01C12CD12C7601F801419008
:1013B0005190619071908F0120E030E0A901C3014C
:1013C000B2010E942136882371F0A3019201C3016A
:1013D000B2010E9483389B01AC01C701B6010E9493
:1013E0002C356B017C010A151B0501F7C701B601FD
:1013F0000E9422396B017C01AC019B0160E070E02E
:1014000080E89FE30E942B362B013C016991799182
:10141000899199915E01F4E0AF1AB108A30192019C
:101420000E948338F5016083718382839383C017A0
:10143000D10761F7C701B601DF91CF911F910F91DD
:10144000FF90EF90DF90CF90BF90AF907F906F9024
:101450005F904F9008954F925F926F927F928F921C
:101460009F92AF92BF92CF92DF92EF92FF926B0169
:101470007C018090830690908406A0908506B090B1
:10148000860640907F06509080066090810670909E
:101490008206A3019201C501B4010E94433887FF6F
:1014A0001BC060913A0670E090E080E00E94D53663
:1014B0002AE037ED43E25CE30E948338A7019601FE
:1014C0000E9483386B017C01AC019B01C301B20116
:1014D0000E9421361816B4F040923E0650923F0604
:1014E00060924006709241068FEFFF90EF90DF9080
:1014F000CF90BF90AF909F908F907F906F905F90B4
:101500004F900895A7019601C501B4010E94433888
:1015100087FD1CC020E030E0A901C701B6010E9490
:101520002136811109C010923E0610923F0610929A
:10153000400610924106D9CF80923E0690923F0617
:10154000A0924006B092410681E0CFCFC0923E0605
:10155000D0923F06E0924006F0924106A501940128
:10156000C701B6010E942B35209100013091010185
:1015700040910201509103010E9483380E9410376C
:1015800020E030E040E85FE30E942C350E94A43662
:10159000862FABCF9091320691110EC081110DC0F4
:1015A00010923E0610923F0610924006109241069D
:1015B0000E94750910923C0608959091870691FF4C
:1015C00005C0803219F440E050E0BA01CB01BA0105
:1015D0000E942B0A0E9467092D9AECCF2F923F920E
:1015E0004F925F926F927F928F929F92AF92BF9233
:1015F000CF92DF92EF92FF920F931F93CF93DF93DF
:10160000CDB7DEB7C254D1090FB6F894DEBF0FBE16
:10161000CDBF3B010091F605202E312C22E3029F25
:10162000A0011124BA016A527D4F7CAB6BABFB0168
:1016300011922A95E9F7F3012085FB01218BF30133
:101640004481558166817781EBA9FCA946A757A7FC
:1016500060AB71AB21FFF0C02CE0E8E1F6E0DE0109
:10166000599601900D922A95E1F789AB9AAB22E445
:1016700036E021963FAF2EAF2197BE01635F7F4FCB
:101680007EAF6DAFCE0149969CAF8BAFEBA9FCA9A5
:10169000FAAFE9AF9E012B5D3F4F3EAB2DAB38AFAC
:1016A0002FAB10E082E3829D2001839D500C11241A
:1016B000B2016A527D4F2B01CB010C9623969FAF4E
:1016C0008EAF239790E1490E511CE9A9FAA96191C7
:1016D000719181919191FAABE9AB2196EEADFFAD9D
:1016E000219781909190A190B1902196FFAFEEAF9C
:1016F0002197A50194010E9483380E945038EDADD6
:10170000FEAD6193719381939193FEAFEDAFEBAD1D
:10171000FCADC190D190E190F190FCAFEBAF6C19B2
:101720007D098E099F099B01AC0197FF07C0222705
:101730003327A901261B370B480B590BE9ADFAAD2E
:101740002193319341935193FAAFE9AF2396EEADD4
:10175000FFAD2397C080D180E280F380C216D3060C
:10176000E406F50610F469017A012396EEADFFADAB
:101770002397C082D182E282F3820E94D536A501EE
:1017800094010E942B36EFA9F8AD61937193819378
:101790009193F8AFEFAB20E030E0A9010E94213631
:1017A00087FF0BC090E2112321F090E8113009F47B
:1017B00090E4F2018081892B80831F5F133009F050
:1017C00084CF80E0CD28CE28CF2809F4CBC0CE012D
:1017D00085960E94BF094B015C0122E3229DC00156
:1017E000239D900D11249C012A523D4F7901F9014E
:1017F000868E978EA0A2B1A2BE016B5D7F4F8AE557
:1018000096E00E941F03F701628F738F848F958F7C
:10181000BE016B5D7F4F8EE496E00E941F03F701CF
:1018200066A377A380A791A7118910FF09C062A7BB
:1018300073A784A795A710C02CE0E7EFF5E00FCFC2
:10184000F301208131814281538113FDA5C0F7014D
:1018500022A733A744A755A78091D502081711F0F6
:1018600011FFA0C082E3829DF001839DF00D112441
:10187000EA52FD4F128A138A148A158A12A213A201
:1018800014A215A282E3829D8001839D100D112474
:101890000A521D4FF801818981FD63C08BA99CA963
:1018A0000E9497036B017C0180900F0690901006B8
:1018B000A0901106B0901206AC019B01C501B401C5
:1018C0000E94213687FF36C1A5019401C501B401EC
:1018D0000E948338F801668B778B808F918F82E32B
:1018E000829D8001839D100D11240A521D4FF80125
:1018F00082A093A0A4A0B5A0A501940166897789D0
:10190000808D918D0E94433818162CF4F801868A38
:10191000978AA08EB18EC0920F06D0921006E092E8
:101920001106F09212068CE0FE01B596A3E0B6E037
:1019300001900D928A95E1F78CE0FE013D96A7EFAC
:10194000B5E001900D928A95E1F78091D4028093E1
:10195000F6058F5F803109F480E08093D4020E9405
:10196000F00481E0CE5BDF4F0FB6F894DEBF0FBE10
:10197000CDBFDF91CF911F910F91FF90EF90DF903E
:10198000CF90BF90AF909F908F907F906F905F901F
:101990004F903F902F900895C501B4010E94833865
:1019A000F70145CF23E036E03AAB29AB8E010F5F5C
:1019B0001F4F6DA97EA9645F7F4F7CAF6BAFC12CB9
:1019C000D12C76010FAB19AFE9A9FAA981909190BA
:1019D000A190B190FAABE9ABEDA9FEA9419051906D
:1019E00061907190FEABEDABA3019201C501B40112
:1019F0000E9483389B01AC01C701B6010E942B35C0
:101A00006B017C01A5019401C301B2010E942B3539
:101A1000F80161937193819391938F012BAD3CAD4C
:101A20006DA97EA92617370779F62FEE3FEF4FE70E
:101A30005FE3C701B6010E94433818164CF482E3F5
:101A4000829DF001839DF00D1124EA52FD4F16CFC7
:101A50002FEE3FEF4FE75FEBC701B6010E94213643
:101A600087FF11C082E3829DF001839DF00D112458
:101A7000EA52FD4F89E996E7A6E9BEE782A393A360
:101A8000A4A3B5A3FFCE8FA999AD0E94BF096FA9EA
:101A900079AD8AE596E00E941F034B015C01A70126
:101AA000960160E070E080E89FE30E942B3520E023
:101AB00030E040E05FE30E9483380E9422396B01EE
:101AC0007C012091770630917806409179065091FB
:101AD0007A06C501B4010E948338A70196010E94CD
:101AE00083384B015C01A701960160E070E080E85B
:101AF0009FE30E942B359B01AC01C501B4010E94FC
:101B00002B366B017C0120E030E0A9010E942136D8
:101B100087FF03C0C12CD12C760182E3829DF001A6
:101B2000839DF00D1124EA52FD4FC2A2D3A2E4A27C
:101B3000F5A2A8CEA7019601C701B601C9CE809132
:101B40006F008D7F80936F0080918100887F81601E
:101B5000809381001092F401809175069091310676
:101B60008F3FA1F420911406211110C0903881F408
:101B700090E0019778F481E09091870692FF02C08F
:101B800091E08927882369F0289A0895943081F795
:101B900080E0F2CFEFE9FFE03197F1F700C00000FD
:101BA000E8CF28980895CF93DF930E949F0DE1EA34
:101BB000F2E080E3DF011D928A95E9F7C5EFD1E0FD
:101BC00083E2FE0111928A95E9F71092D2021092F7
:101BD000D102109218021092440281E080931902FF
:101BE0001092F4010E945B068091F3018F878BB104
:101BF000837E9091F201892B8BB98BB18F7190917B
:101C0000F301892B8BB9DF91CF9108958091130651
:101C100084FD1CC080E10E944B020E94750943981C
:101C200090913106892F8C7221F48091350686704F
:101C300069F0943049F480911406811103C086E064
:101C40000E943B020C949F0D83E0FACF08952F92DF
:101C50003F924F925F926F927F928F929F92AF923C
:101C6000BF92CF92DF92EF92FF920F931F93CF9389
:101C7000DF93CDB7DEB7EB970FB6F894DEBF0FBE9C
:101C8000CDBF8091350680FD53C29091180280919E
:101C90001902981709F44CC28091D1029091D20296
:101CA000892B09F07EC01091350612FF5AC280912F
:101CB000F60522E3829FC00111248A529D4F909322
:101CC000D2028093D1024091D1025091D2025A8720
:101CD0004987452B09F42CC20091A20200FF44C29F
:101CE0001092A2021092B4021092B5021092B602A3
:101CF0001092B702A985BA855A962D913D914D91C2
:101D00005C915D9729833A834B835C8360E070E04C
:101D100080E09FE30E942B366D837E838F839887BC
:101D2000E985FA85468C578C60A071A082889388DB
:101D3000A488B58811FF05C3F2E0F093B302A501B2
:101D400094010E9483389B01AC01C301B2010E943F
:101D50002B356B017C0120E030E0A9010E94213687
:101D600087FFDEC229813A814B815C81CA01B901BA
:101D70000E942C35A30192010E9483389B01AC0183
:101D8000C501B4010E942B350E9422396093C00224
:101D90007093C1028093C2029093C30218601093A3
:101DA000350680914402A82FB0E0BA8BA98B27E0BA
:101DB0002A9FF0012B9FF00D1124E65EFD4F8091CC
:101DC000A10284834091D1025091D2025A8749875F
:101DD000DA015E96BC91BDA3FA01F78DFEA3DA018C
:101DE0009096BC91BFA3FA01F1A1F8A72091AF0290
:101DF0003091B0024091B1025091B2026DA17EA12A
:101E00008B2F9F2F0E942B3569AB7AAB8BAB9CAB92
:101E100020E030E0A9010E94213687FF04C019AA02
:101E20001AAA1BAA1CAA2091BC022D8B3091BD02BC
:101E30003E8B4091BE024F8B5091BF02588F8091D4
:101E4000C4028D8F9091C5029E8FA091C602AF8F64
:101E5000B091C702B8A3E091C802E9A7F091C90206
:101E6000FAA72091CA022BA73091CB023CA7709011
:101E7000B8026090B9024091BA024BAF5091BB02D8
:101E80005AAF8091B3028D879091B4029DA7A09123
:101E9000B502AEA7B091B602BFA7E091B702E8AB1A
:101EA000F091C002FEAB2091C1022FAB3091C20273
:101EB00038AF4091C30249AF29A53AA54BA55CA50F
:101EC0006D8D7E8D8F8D98A10E9421368111C8C3A2
:101ED00052E05DAB9DA1998FAEA1AA8FBFA1BB8F30
:101EE000E8A5EC8F8EE3C82E83ECD82E8EE2E82E88
:101EF00089E3F82E212C312C2101A701960129A379
:101F00003AA34BA35CA35D85513009F44AC4A9856B
:101F1000BA85513008F4D6C3533009F078C45A96C4
:101F20002D913D914D915C915D97C701B6010E9445
:101F300083384B015C012D893E894F89588D672D6F
:101F4000762D8BAD9AAD0E942B359B01AC01C5015E
:101F5000B4010E94433887FD8DC32D8D3E8D4F8D7A
:101F600058A16DA17EA18FA198A50E942B359B0140
:101F7000AC010E942C356B017C012D893E894F8973
:101F8000588D672D762D8BAD9AAD0E942C359B0117
:101F9000AC01C701B6010E942B366B017C017D8824
:101FA0006E88BF89BBAFE88DEAAF0D8D1E8DFF8DAA
:101FB000F98328A12D8331E03D87A7019601C20155
:101FC000B1010E942C351B012C0129A13AA14BA182
:101FD0005CA10E94213687FF87C4A201910169A1FB
:101FE0007AA18BA19CA10E942B356B017C019801E9
:101FF00049815D816DA57EA58FA598A90E94213696
:1020000087FD31C33D853093B302872D962DABAD4F
:10201000BAAD8093B8029093B902A093BA02B0937C
:10202000BB02E0914502F09146028189811104C012
:102030009091350693FF31C0A985BA8551969C9140
:102040005197907309F470C49E96CD90DD90ED90F9
:10205000FC90D1978823B1F02091CC023091CD0231
:102060004091CE025091CF02672D762D8BAD9AAD67
:102070000E9483389B01AC01C701B6010E948338DE
:102080006B017C01C701B6010E942B0A8093D0022C
:1020900080913506877F8093350627E0E989FA89A4
:1020A0002E9FC0012F9F900D1124AC01465E5D4F05
:1020B0003A018091D002DA0116968C932091AB02FE
:1020C0003091AC024091AD025091AE02B8018981CD
:1020D0009D810E94833869877A878B879C870E94BD
:1020E0000A366B017C016091A7027091A802809171
:1020F000A9029091AA020E940A364B015C01A70135
:1021000096010E942B350E94A4366D877E878F87AB
:10211000988B2D853E85F30131832083232B09F095
:102120000EC48091350681FF0AC481608093350614
:10213000EB960FB6F894DEBF0FBECDBFDF91CF9107
:102140001F910F91FF90EF90DF90CF90BF90AF90D5
:102150009F908F907F906F905F904F903F902F90C7
:1021600008950E940A04ABCD8091A1028F5F853053
:1021700009F480E08093A102282F30E052E1859F8E
:10218000C0011124DC01A95BBD4F7D01B093460263
:10219000A0934502E985FA85808950968C9390E05A
:1021A00080E04191519161917191D701A80FB91FC0
:1021B000689412F8440F551F661F771F1694D1F7C5
:1021C0004D935D936D937C93139704968C3091059A
:1021D00041F7A985BA851C966D917D918D919C9151
:1021E0001F97B2E1B29FA001B39F500D1124FA01D5
:1021F000E95BFD4F4B015C0123E0880C991CAA1C94
:10220000BB1C2A95D1F784869586A686B7860E9440
:10221000D3366093A7027093A8028093A90290938B
:10222000AA02E985FA85268D378D40A151A10E9429
:102230002B369B01AC012093AB023093AC02409350
:10224000AD025093AE0260E070E080EA9FE30E942E
:102250002B366093AF027093B0028093B1029093DB
:10226000B2021092A3021092A4021092A502109240
:10227000A60211FD02C003FF42C06091C00270912E
:10228000C1028091C2029091C3026093B802709320
:10229000B9028093BA029093BB029B01AC010E94E9
:1022A0008338A985BA8552966D937D938D939C93BF
:1022B0005597077F0093A202D70151961C928091F7
:1022C000870681FF0FCDE985FA85818985FF0ACDD3
:1022D00022A533A544A555A560E070E080E89FE302
:1022E0000E942B366093CC027093CD028093CE0275
:1022F0009093CF02E1E0D7015196EC93F3CCE985BE
:10230000FA8562897389848995890E94223960934C
:10231000B8027093B9028093BA029093BB02CCCFFB
:10232000C092B402D092B502E092B602F092B70227
:102330001092C0021092C1021092C2021092C30207
:102340002DCD1092B3024092C4025092C502609209
:10235000C6027092C70212FF6AC01092C0021092A9
:10236000C1021092C2021092C302C12CD12C76017C
:1023700089859A850E949703698B7A8B8B8B9C8BBE
:102380009B01AC010E94833869877A878B879C8781
:10239000A50194010E94213687FF93C029853A85C3
:1023A0004B855C85C501B4010E942B352D813E8192
:1023B0004F8158850E9483389B01AC01C301B20153
:1023C0000E942B356093C4027093C5028093C602AD
:1023D0009093C70220E030E0A9010E942136181630
:1023E0000CF449C032E03093B30229813A814B8129
:1023F0005C81CA01B9010E942C35A30192010E949F
:1024000083389B01AC01C501B4010E942B350E94A9
:1024100022396093C0027093C1028093C2029093EC
:10242000C3028091A20288608093A202B7CCE0919F
:10243000D502EF5FE03109F4E0E08091F605C12CB0
:10244000D12C76018E1751F022E32E9FF00111243A
:10245000EA52FD4FC288D388E488F588C701B601E7
:102460000E9422396093C0027093C1028093C2021D
:102470009093C3027DCFA701960169857A858B85EC
:102480009C850E942B352D813E814F8158850E946D
:1024900083386093C8027093C9028093CA029093F4
:1024A000CB0289899A89AB89BC898093BC029093BD
:1024B000BD02A093BE02B093BF0293E09093B3021B
:1024C0006DCCA7019601C501B4010E942B352D8169
:1024D0003E814F8158850E948338A30192010E945A
:1024E0002C3520E030E040E05FE30E9483386D87C8
:1024F0007E878F87988B20E030E0A9010E944338C7
:1025000018160CF094C0A30192016D857E858F850D
:1025100098890E94213687FF88C0A70196016985A6
:102520007A858B859C850E942B352D813E814F813C
:1025300058850E9483389B01AC012093C8023093D8
:10254000C9024093CA025093CB026D857E858F8568
:1025500098890E9443381816BCF529893A894B8915
:102560005C892093BC023093BD024093BE0250931D
:10257000BF02A501940169857A858B859C850E949F
:102580002136811104C031E03093B30207CCA5019C
:10259000940169857A858B859C850E942B352D81D8
:1025A0003E814F8158850E9483389B01AC01C30155
:1025B000B2010E942B356093C4027093C5028093D0
:1025C000C6029093C702EACB8D859E85AF85B889F8
:1025D0008093C4029093C502A093C602B093C70231
:1025E0008093C8029093C902A093CA02B093CB0211
:1025F00029813A814B815C81CA01B9010E942C3545
:102600002D853E854F8558890E948338A701960104
:102610000E942C350E9422396093BC027093BD0247
:102620008093BE029093BF02B9CB92E047CF8091D6
:10263000C0029091C102A091C202B091C302109257
:10264000C4021092C5021092C6021092C702809373
:10265000BC029093BD02A093BE02B093BF029ECB7A
:1026600081E08DAB37CC098F1A8F39813B8F4D813B
:102670004C8F49CC20E030E040E05FE3C501B4017D
:102680000E9483389B01AC01672D762D8BAD9AADEE
:102690000E942B35A70196010E9483389B01AC0153
:1026A000698D7A8D8B8D9C8D0E942B358B01898352
:1026B0009D83A5019401672D762D8BAD9AAD0E9467
:1026C0002B356AC05A962D913D914D915C915D9745
:1026D000C701B6010E9483384B015C0120E030E065
:1026E00040E05FE30E948338272D362D4BAD5AAD75
:1026F0000E942C35A70196010E9483389B01AC01F2
:10270000698D7A8D8B8D9C8D0E942B358B018983F1
:102710009D839B01AC016D8D7E8D8F8D98A10E9454
:10272000433818168CF52D8D3E8D4F8D58A16DA117
:102730007EA18FA198A50E942B359B01AC010E9420
:102740002C356B017C012D893E894F89588D672D71
:10275000762D8BAD9AAD0E942C359B01AC01C70143
:10276000B6010E942B366B017C017D886E88BF8983
:10277000BBAFE88DEAAFFDA9FD870D8D1E8D2F8DB6
:10278000298338A13D8319CCA5019401672D762DAD
:102790008BAD9AAD0E942C35762E672E8BAF9AAFFB
:1027A0000CCC2D893E894F89588DC701B6010E94F6
:1027B00083389B01AC01698D7A8D8B8D9C8D0E9435
:1027C0002B358B0189839D8329A53AA54BA55CA553
:1027D0000E94213687FFF1CB29A53AA54BA55CA520
:1027E000698D7A8D8B8D9C8D0E942B352D893E892C
:1027F0004F89588D0E942B366B017C0109A51AA5C3
:102800004BA549835CA55D8382E08D87D6CB5A9624
:102810002D913D914D915C915D97C701B6010E944C
:1028200083384B015C01AC019B01672D762D8BAD8C
:102830009AAD0E944338181644F520E030E040E09D
:102840005FE3C501B4010E9483389B01AC01672D91
:10285000762D8BAD9AAD0E942B35A70196010E9473
:1028600083389B01AC01698D7A8D8B8D9C8D0E9484
:102870002B358B0189839D832DA53EA54FA558A996
:102880000E94433818160CF414CF2DA53EA54FA571
:1028900058A9698D7A8D8B8D9C8D0E942B359B015B
:1028A000AC010E942C356B017C012EA93FA948ADDB
:1028B00059AD672D762D8BAD9AAD0E942C359B01BD
:1028C000AC01C701B6010E942B366B017C017EA8CA
:1028D0006FA8B8ADBBAFE9ADEAAF0DA51EA5FFA5CA
:1028E000F98328A92D8369CB29A93AA94BA95CA909
:1028F000B80189819D810E94433818168CF42EE31B
:1029000033EC4EE259E369A17AA18BA19CA10E940C
:102910002C3569A37AA38BA39CA3A201910163CB5D
:102920004D854093B30271CB10923E0610923F0644
:1029300010924006109241061092D002A9CB20912D
:10294000A3023091A4024091A5025091A602C201B7
:10295000B1010E942C352B013C0129853A854B851C
:102960005C85C501B4010E942B359B01AC01C301FC
:10297000B2010E942B364B015C0120EC31EE44E6A3
:102980005EE40E9483380E940A360E94A436603DAD
:1029900057E075078105910508F066C027E0A98911
:1029A000BA892A9FF0012B9FF00D1124E65EFD4F9E
:1029B000158227E0A989BA892A9FF0012B9FF00D83
:1029C0001124E65EFD4F7383628380911902809328
:1029D00044028F5F863009F4A1C080931902E09110
:1029E000D102F091D202C801A981BD81868F978F53
:1029F000A0A3B1A3C092A702D092A802E092A9021C
:102A0000F092AA0229853A854B855C85C701B601FB
:102A10000E942B35A50194010E9483386093A30284
:102A20007093A4028093A5029093A6022091B40211
:102A30003091B5024091B6025091B702B801898138
:102A40009D810E942136811120C9F090350620E039
:102A500030E0A901B80189819D810E944338181690
:102A60000CF05FC08F2D61CB603A3FE073078105AA
:102A70009105A0F5A7E049895A89A49FF001A59F77
:102A8000F00D1124E65EFD4FB1E0B583A7E0498962
:102A90005A89A49FF001A59FF00D1124E65EFD4F19
:102AA0002581022E04C096958795779567950A949F
:102AB000D2F74D855E8502C0440F551F2A95E2F777
:102AC000518340836115710551E08507910508F434
:102AD00070CF4FEF5FEF5383428377CF6034EFE1E6
:102AE0007E078105910568F447E029893A89429F6C
:102AF000F001439FF00D1124E65EFD4F52E0558337
:102B0000C5CF27E0A989BA892A9FF0012B9FF00D34
:102B10001124E65EFD4F33E03583B8CF10921902E1
:102B20005ECFF2FC9FCF1092D2021092D102909110
:102B3000D5028091F605891709F4A7C881E0890FAD
:102B4000803109F480E02091D302921302C0809377
:102B5000D3028093D50299C82F923F924F925F92F1
:102B60006F927F928F929F92AF92BF92CF92DF929D
:102B7000EF92FF920F931F93CF93DF93CDB7DEB702
:102B8000A4970FB6F894DEBF0FBECDBF1091140608
:102B9000112349F181E08093310686E691E00E949D
:102BA000C607812F0E94A1070E94D40785EF91E0FC
:102BB0000197E1F51150123088F48AEC92E00E94FE
:102BC000C60788EB92E00E94C6070E942C0980E1AC
:102BD0000E9441028091130684FFFCCF8FB7F894C6
:102BE000109214068FBF10911306112309F49DC291
:102BF00014FF23C081E080933206A4960FB6F894A8
:102C0000DEBF0FBECDBFDF91CF911F910F91FF901F
:102C1000EF90DF90CF90BF90AF909F908F907F907C
:102C20006F905F904F903F902F900895EFE9FFE0F5
:102C30003197F1F700C00000BBCF10FFCDC08CE092
:102C4000E8E1F6E0DE01599601900D928A95E1F7F0
:102C5000BE01675E7F4FCE010D960E948F028CE30E
:102C60000E94990680913106883009F42FC108F03E
:102C70000AC1813009F433C108F423C1823009F458
:102C800031C1843009F428C180917606F82FF170A3
:102C90009F2E80FF3CC180913D06882309F437C1F7
:102CA00082E991E00E94C607CE010D960E94880736
:102CB0008091760681FF1DC086E891E00E94C607DC
:102CC0009091F6058091D502981708F46FC1815F45
:102CD000891B0E94A1078CE20E9499068091F10154
:102CE0009091F001981708F463C18058891B0E94E5
:102CF000A10781E891E00E94C607809131068C7798
:102D000009F458C16091B8027091B9028091BA0279
:102D10009091BB020E946C078CE20E949906609120
:102D20003E0670913F06809140069091410640E03A
:102D30000E94C2060E94E902E82E0E94CB02F82EF1
:102D400006B100728091170608278E2D8F29802BDF
:102D500059F18CE791E00E94C607002319F080E545
:102D60000E949906EE2079F0E0FE03C088E50E94FB
:102D70009906E1FE03C089E50E949906E2FE03C0C0
:102D80008AE50E949906FF2079F0F0FE03C082E5F3
:102D90000E949906F1FE03C088E40E949906F2FEA3
:102DA00003C083E50E94990680913D06882309F4BB
:102DB00005C1815080933D0600913C06002309F433
:102DC00016C1015000933C068EE30E9499060E94B2
:102DD000D40781E00E944102812F887E09F455C109
:102DE00080913106982F937009F03EC18872A9F046
:102DF00080913306807C89F40E94CC0482E0809329
:102E0000350680913106803241F480E217FD0CC016
:102E1000809133068068809333068091310681115A
:102E200003C091E09093330616FF07C085FD05C0EF
:102E30009091330690649093330613FF05C0807E13
:102E400019F480E18093310615FF0EC18AEC92E0FF
:102E50000E94C60786E792E00E94C6070E942C09DE
:102E60008091330687FDFBC090913106903409F0C4
:102E7000F3C083FF04C0837E82608093330680E4C6
:102E800080933106ECC0803221F198F4803109F052
:102E9000FBCE8091330687FD1CC08AEB91E00E9437
:102EA000C6078091330680FF2EC080E30E949906FA
:102EB000EBCE8034D1F0803809F0E6CE89E991E09C
:102EC00002C084EC91E00E94C607DECE80EC91E067
:102ED000FACF86EB91E0F7CF81EB91E0F4CF8BEA6C
:102EE00091E0F1CF85EA91E0EECF8FE991E00E9489
:102EF000C6078091330683FF02C083E3D7CF82FFEA
:102F000004C085FFD2CF81E3D1CF82E3CFCF409001
:102F1000D3065090D4066090D5067090D6065BEB31
:102F2000A52E56E0B52E9E012F5F3F4F6901CE01C1
:102F30000D967C0100E0F501619171918191919173
:102F40005F0120853185428553850E942C35F6012D
:102F500061937193819391936F01023041F4A301C6
:102F600092010E942C3569877A878B879C87911004
:102F700012C0F60134972081318142815381F701DB
:102F800060817181828193810E942B35F70160837A
:102F90007183828393830F5FF4E0EF0EF11C0330A3
:102FA00051F691107DCE8BE891E07CCE815090CE91
:102FB00081509CCE60E070E0CB01ACCE80913106B8
:102FC0008C7799F08DE180933D0680913C068111CC
:102FD00003C081E080933C0686E791E00E94C6072B
:102FE000CE0101960E948807E7CE89E0ECCF809160
:102FF00031068C7779F183E180933C0681E791E09B
:103000000E94C607809138060E94A1078CE20E94A8
:103010009906809139060E94A1078CE20E949906C8
:1030200080913A060E94A10785B18072F82E439BD9
:10303000C3C100E48DE691E00E94C607FF2019F0AD
:1030400083E50E949906002309F4BECE86E40E941F
:103050009906BACE89E0D0CF903809F010CF809190
:10306000330680628093330617FF0CC080913106CF
:10307000813029F48091330685608093330680E89F
:103080008093310688EE0E94410211FF28C0812FF3
:10309000887611F580913106803441F480913306B1
:1030A00085FD04C084FFEAC010923106809131068C
:1030B000882309F4E9C084FF0FC09091330690FF84
:1030C0000BC0803109F0E0C080913B06882309F4F1
:1030D000DBC0886080933B0682E00E94410212FFC1
:1030E00024C09091330680913106807D09F4E5C0BB
:1030F000809134068111E1C097FDE1C00E94CC04AB
:103100008091D5028093D3020E94F004809135060D
:1031100081FF05C090913306916090933306897FBB
:103120008093350684E00E94410290911506992310
:1031300009F44CC08FB7F894109215068FBF4091D8
:103140003806842F90FD84E691FD865F92FD8A50BB
:1031500093FD8F5F94FD8150893C08F088EC8A30A4
:1031600008F48AE030913906232F95FD24E696FD78
:1031700022E397FD29E1481302C0231739F1809318
:1031800038062093390610923C067090D502609064
:10319000F605172D89E9282E96E7392E26E9422EC5
:1031A0003EE7532E42E3842E1611A4C0C101D20182
:1031B00080930F0690931006A0931106B093120609
:1031C0000E94CC047092D3020E94F0041091160663
:1031D000112309F44BC08FB7F894109216068FBFD5
:1031E00090913A06892F10FD84E611FD865F12FD4D
:1031F0008A5013FD8F5F14FD8150893C08F088ECE4
:103200008A3008F48AE09817A1F0909131068093F3
:103210003A069111C5C04091A2065091A306609153
:10322000A4067091A5068091A0060E94CA0A109279
:103230003C068091310615FF09C0803139F4909128
:103240003B069111B3C092E090933B06107C71F065
:10325000882311F0887351F010919F0616FFAAC0C1
:103260001F7B812F0E945B0910939F06809131067E
:103270008C7F09F4C2CC0E94270EBFCC82FF16CFF0
:1032800088608093330612CF109235060E940A049C
:10329000892B71F08091330686FD0AC010923306A7
:1032A00088E0809331060E94270E0E94780614CF92
:1032B00010923306109231060FCF97FF0AC010927A
:1032C00035060E94AE090E94D30D0E94A8090E94F3
:1032D00075038091330685FF08C08F7781608093E6
:1032E000330680E4809331061DCF1092330610928E
:1032F000310618CFA12EB12C189DC00111248A527D
:103300009D4F0E949703962EC72ED82E092F91010C
:10331000A2010E9443388A9C70018B9CF00C1124FE
:1033200097012A523D4F790118168CF59101A2019F
:10333000B101C2010E948338F701668B778B808FC1
:10334000918F8A9CC0018B9C900D11249C012A5264
:103350003D4F7901F90122A033A044A055A0A2015C
:10336000910166897789808D918D0E944338181666
:103370002CF4F701268A378A408E518E1F5F103158
:1033800009F410E0292C3C2C4D2C502E0DCF292D6A
:103390003C2D4D2D502F692D7C2D8D2D902FCACF7A
:1033A0008091350688608093350641CF90FF4ECFDF
:1033B00094604ACF106455CF81113CCE05CDCF9299
:1033C000DF92EF92FF921F93CF93DF930E94AC1591
:1033D00080913306882309F46EC00E940A04009786
:1033E00009F03FC0C091A00680919F06C82BC090F5
:1033F000A206D090A306E090A406F090A5068091C6
:10340000870681FF03C080E20E942902DC2FD0736F
:1034100011E0C07C80913306882309F44CC0909160
:103420003206911148C080FF19C090913106292FB2
:10343000207C09F48DC082FD23C010923B0640E041
:1034400050E0BA0180E00E94CA0A80E00E945B0955
:10345000809133068D7F8460809333060E94AC1583
:10346000D9CFFC0121892073439908C0C0E0C22B49
:10347000FC01C6A4D7A4E0A8F1A8C1CFC0E4F7CF4F
:10348000903821F58AEC92E00E94C60783E392E02F
:103490000E94C6070E942C0940E050E0BA0180E07B
:1034A0000E94CA0A80E00E945B090E949F0D8091E1
:1034B0003206882341F0DF91CF911F91FF90EF906A
:1034C000DF90CF9008950E94AC15F1CF903419F49D
:1034D0008F7D809333068091330683FFBFCF909119
:1034E000A006992359F081FD09C08091870681FFCC
:1034F00022C08091350688608093350680919F06B2
:10350000882371F08091330681FD0AC08C2F0E94C0
:103510005B0941E060E070E080E89FE30E94DD1C11
:103520008091330681FD9ACF80618093330682E0DB
:103530000E944B0293CFB701A6018D2F0E94CA0AA9
:1035400041E060E070E080E890E40E94DD1CD6CFAE
:1035500080913B068823C9F181FF0DC08091A006B0
:10356000882351F140E050E0BA0180E00E94CA0A8D
:1035700010933B0673CF8C7009F470CF8091A00636
:10358000882399F08AEC92E00E94C6078CE392E0CF
:103590000E94C6070E942C098091870681FF0FC0F8
:1035A0008091350688608093350680913B0683FFC5
:1035B00003C082E00E944B0210923B064FCFB7013E
:1035C000A6018D2F0E94CA0AF0CF8091350683FF95
:1035D00045CFB701A6018D2F0E94CA0A80913506FA
:1035E000877F809335063ACF2F923F924F925F921A
:1035F0006F927F928F929F92AF92BF92CF92DF9203
:10360000EF92FF920F931F93CF93DF93CDB7DEB767
:10361000A2970FB6F894DEBF0FBECDBF90913206D1
:10362000911115C1782E9E01235F3F4F3A8F298F4C
:1036300089E0D9011D928A95E9F786E08D8BE2E455
:10364000F6E0FC8FEB8F7F01275F3F4F690110E0B1
:1036500000E0812C912C5401872D90E09E8F8D8F5E
:10366000802F94E0002321F090E1013009F498E0EC
:10367000D6019D936D01ED8DFE8D02C0F595E79508
:103680008A95E2F7E0FF1BC020E030E040EC5FEB02
:10369000D70194966D917D918D919C9197970E9401
:1036A0008338362E472E582E692EA50194010E948C
:1036B000213687FD04C0832C942CA52CB62C0F5FDB
:1036C0001F4FB4E0EB0EF11C0330110549F62090BA
:1036D0008D0630908E0640908F065090900684E0C4
:1036E000682E01E068E176E0CE0101960E948F022B
:1036F00080918806E82FF0E0FAA3E9A3FE01319655
:1037000028E136E038A32F8F6901F12C10E090E01A
:1037100080E0B501A40170582D8D3E8D082E02C0A9
:10372000359527950A94E2F720FF26C0F394D60139
:103730001D921D921D921C92139729A13AA1082E49
:1037400002C0359527950A94E2F720FF07C00023B1
:1037500039F0408351836283738306C00023C9F329
:1037600080829182A282B382A6E1B0E0AC0FBD1F3D
:10377000A80FB91F2C91122B01963496B4E0CB0EF2
:10378000D11C8330910541F66F2D70E090E080E010
:103790000E94D3360E94223910933706A20191016C
:1037A0000E9483386D877E878F87988BBE01635F09
:1037B0007F4FCE0101960E94EE0AE4E0E0933506C9
:1037C0000E94270E0E9478060023E9F00E94E90279
:1037D000FE01769630E020E090E06191462F412393
:1037E00059F0AC01022E02C0559547950A94E2F7B4
:1037F00040FF02C0609516232F5F3F4F23303105F5
:1038000061F7109337060E94270E80911306847388
:1038100009F4B3C01091130614FF03C086E00E94A0
:103820003B0215FF03C087E00E943B020111C1C0AB
:103830000E94E902872119F088E00E943B028091F2
:1038400014068823E9F00E94060E0E94DF19A29652
:103850000FB6F894DEBF0FBECDBFDF91CF911F91A1
:103860000F91FF90EF90DF90CF90BF90AF909F901F
:103870008F907F906F905F904F903F902F90089522
:1038800084E00E9441020E94D30D809191069091A4
:103890009206019708F076C0E1E00E27C0909306EB
:1038A000D0909406E0909506F0909606002309F4D7
:1038B00070C020E030E040EA50E4C701B6010E9449
:1038C00083384B015C012090890630908A06409035
:1038D0008B0650908C066A94611004CF2090880665
:1038E000312C2601370177FA709477F8709410E044
:1038F00000E08D8D9E8D002E02C0959587950A94CF
:10390000E2F780FF26C0AB8DBC8D8D909D90AD9071
:10391000BC901397C101002E02C0959587950A941B
:10392000E2F780FF41C094962D913D914D915C91BD
:103930009797C701B6010E942C35A50194010E94FA
:1039400083380E945038EF8DF8A1608371838283A1
:1039500093830F5F1F4F2F8D38A12C5F3F4F38A3EC
:103960002F8F8B8D9C8D04969C8F8B8F0330110530
:1039700009F0BFCF109235066ACF812F8C7109F004
:1039800023CF81CFAFE9BFE01197F1F700C000006E
:1039900080CF20908D0630908E0640908F065090FC
:1039A00090064601570197CFA5019401C301B201CA
:1039B000C6CF12FF44CF89E040CF1F93CF93DF9350
:1039C000142F20E030E040EA51E40E9483380E9446
:1039D0000A360E94A436EB012097C9F08091320686
:1039E000811115C011110DC00E94DF192FEF80E762
:1039F00092E0215080409040E1F700C00000219704
:103A0000EBCF0E94AC158091330681FFEFCFDF91A1
:103A1000CF911F9108950E9491060E94DF19809115
:103A20003206811108C00E940A04892BB1F78091E7
:103A30003106883091F30895CF93DF9391E5899F04
:103A4000E0011124DD5F40E550E0BE0181E197E037
:103A50000E948A04892B79F4109211070E940B1D91
:103A600040E550E061E177E0CE010E943A0480E059
:103A7000DF91CF91089581E0FBCF0E940B1D109242
:103A80003D0608950F931F93CF93C82F8B010E947B
:103A90000B1D2DE0C29FC00111244CE050E0B80185
:103AA0009E5FCF911F910F910C943A041F93CF9377
:103AB000DF93182FEB018DE0189FB00111247E5F7A
:103AC0004CE050E0CE010E948A04892B71F48CE016
:103AD000FE0111928A95E9F7BE01812F0E94421DD5
:103AE00080E0DF91CF911F91089581E0FACFEF92AE
:103AF000FF920F931F93CF93DF93CDB7DEB72C9731
:103B00000FB6F894DEBF0FBECDBF182F80FF0BC0DD
:103B100085E5E9ECF1E0A2E4B6E005900D928A9526
:103B2000E1F70E94750411FF10C0CE0101967C01DF
:103B30008CE0F70111928A95E9F700E0B701802F38
:103B40000E94421D0F5F0830C9F712FF14C060E0E9
:103B500080E093E00E941A0460E081E093E00E941C
:103B60001A0460E081E593E00E941A0460E082E5B7
:103B700093E00E941A0413FF0AC060E08EEA93E00B
:103B80000E941A0460E08FEA93E00E941A042C96C7
:103B90000FB6F894DEBF0FBECDBFDF91CF911F915E
:103BA0000F91FF90EF900895CF92DF92EF92FF92E6
:103BB000CF9390913106923079F06A017B01C82F42
:103BC0000E940B1DB701A6018C2FCF91FF90EF90A3
:103BD000DF90CF900C94CA0ACF91FF90EF90DF90C6
:103BE000CF900895FF920F931F93CF93DF938C0193
:103BF000EB018091870685FF23C0F090310680E2BB
:103C0000F81611F1C8010E9454028823C9F081E01E
:103C10008093340688E0F8120CC00E944B020E9488
:103C2000DF198091320681110BC08091310681111C
:103C3000F6CF0E94060E82E00E943B020E94DF192E
:103C400080913106823041F10E94DF198091320665
:103C5000811122C09091D5028091D402981303C0A3
:103C60000E949106F1CFBE01C8010E94EE0A8111A7
:103C700013C08091870681FF0FC0888584FF0CC028
:103C80004C815D816E817F8180E1DF91CF911F91B9
:103C90000F91FF900C94D41DDF91CF911F910F9144
:103CA000FF9008952F923F924F925F926F927F9272
:103CB0008F929F92AF92BF92CF92DF92EF92FF923C
:103CC0000F931F93CF93DF93CDB7DEB7CC54D109B9
:103CD0000FB6F894DEBF0FBECDBFE7EDF6E08AE386
:103CE000DF011D928A95E9F78BE0E7E9F6E0A8EDA0
:103CF000B6E001900D928A95E1F780911107843228
:103D0000A1F01A8E1BA2312C212C1EA61DA610E09C
:103D10001B8E1F8EEE24E394F12CAAE0AA2EB12C68
:103D2000B1E68B2EB3E09B2E4EC181E08093D80686
:103D30001092D90683E08A8FB1E0BBA3E4CF9FEB5A
:103D40009D0D9A3110F00C94E02B8F5F8A8FBE018D
:103D50006A5E7F4FCE014A960E947C01882311F44F
:103D60000C94E32B4E885F88688C798CC301B20178
:103D70000E9466390E94A436062F70E090E080E031
:103D80000E94D5369B01AC01C301B2010E942B35C4
:103D900020E030E048EC52E40E9483380E94F03882
:103DA0000E94A436CB01E7E4DE1629F1FDE4DF161C
:103DB00009F465C1EAEBED0DE53108F02CC00E2EDB
:103DC000000CFF0BEA51F14E0C94CE3988200B1FEA
:103DD0000B1FB520C020CB20D6200B1FDA200B1FD5
:103DE000E8200B1FF220FC2006210B1F0B1F0B1FCE
:103DF000162123213021083209F4DDC030F50431C9
:103E000060F4013108F098C0043009F474C0B0F0D7
:103E10000A3009F468C084E196C00C3109F463C02B
:103E200040F40631C0F725E1201B2093DA0626E096
:103E300087C00E3109F457C0063269F74F8D411122
:103E40000C94E62BA2E0AF8F28C00D3309F4AEC06E
:103E5000E0F4053309F44FC088F40B3211F001335C
:103E6000D1F6BF8DB1110C94E62B013309F095C04A
:103E70001092DD06E3E0EF8F28E04FC00C3358F6D8
:103E800006530093DE0629E05BC00C3508F50A35C1
:103E900008F073C0003509F0BECF0093D80621E0CA
:103EA000063209F04DC08431910551F08E319105F3
:103EB00039F08832910521F08233910509F0ABCFBA
:103EC000B5010E94983966576093D80621E025C055
:103ED0000C3549F00F3508F09ECF2EE5201B2093BE
:103EE000D90625E02DC0009731F42F8D21110C94B7
:103EF000E62B31E03F8F0093D706202F2D7F2C310A
:103F000019F020E00C35E1F4009719F00A9709F058
:103F100082CF600F6093D70620E0C70102C0880FF0
:103F2000991F2A95E2F72DA53EA528233923232B97
:103F300009F443C085E107C001510093DC0622E08B
:103F4000892B59F387E1C45BDF4F0FB6F894DEBFCE
:103F50000FBECDBFDF91CF911F910F91FF90EF90DA
:103F6000DF90CF90BF90AF909F908F907F906F9099
:103F70005F904F903F902F900895892B29F40A5518
:103F80000093DB0623E0C9CF6A30710509F043CF07
:103F90000A3509F440CF24E0C0CF0A9709F03BCF9F
:103FA000F1E0F093DD0623E02F8F66CF892B09F037
:103FB00032CF2AE0B2CF27E0C3CFADA5BEA5A82B54
:103FC000B92BBEA7ADA78A8DE82FF0E0EF5EF84FC2
:103FD000D080D110B4CEBB8DBB2329F0EF8DE11181
:103FE00002C0F2E0FF8F25FE0FC08091F406909191
:103FF000F506A091F606B091F70681389649A849D2
:10400000B10514F00C94F22B3BA1332309F435C114
:1040100020FE45C18091DA068130B1F423E333E319
:104020004BEC51E46091E3067091E4068091E50663
:104030009091E6060E9483386093E3067093E4064D
:104040008093E5069093E60630FC10C08091A206AE
:104050009091A306A091A406B091A50680930007B5
:1040600090930107A0930207B09303078091D706AE
:10407000843009F02FC126FC2BC18CE164CF892B41
:1040800009F060CF063050F4033098F00430D9F0D6
:1040900080E10530C9F41092E10618C0083008F438
:1040A000BACE0A3048F10E3109F0B5CE0093DF06E2
:1040B00004C0002321F00130C9F78BE008C0B3E051
:1040C000B093DF06FACF80E28093E1068CE0F7013F
:1040D00002C0EE0FFF1F8A95E2F7CF012DA53EA586
:1040E0002E233923232B09F025CF2DA53EA52E2BDA
:1040F000392B3EA72DA767CF093039F08091E00614
:1041000080648093E0068DE0E2CF1092E006FBCF62
:104110004092E3065092E4066092E5067092E6064D
:1041200080E06701082E02C0CC0CDD1C0A94E2F787
:10413000960122213321232B11F00C94EC2BD40176
:1041400002C0B595A7958A95E2F7A0FF0BC020E0C5
:1041500030E0A901C301B2010E94213687FF02C0ED
:104160000C94EF2B2C283D282ECF4092E70650923E
:10417000E8066092E9067092EA06116081E0D1CF0C
:104180004092EB065092EC066092ED067092EE06BD
:10419000126082E0C6CF4092EF065092F006609225
:1041A000F1067092F206146083E0BBCF0093F30631
:1041B00084E0B7CFC301B2010E949D366093F4063C
:1041C0007093F5068093F6069093F70685E0A9CFE5
:1041D0004092F8065092F9066092FA067092FB0639
:1041E00086E09FCF4092FC065092FD066092FE064C
:1041F0007092FF0687E095CF40920007509201072A
:10420000609202077092030788E08BCF20E030E0D5
:104210004FE753E4C301B2010E944338181614F467
:104220000C94E92B0093040789E07BCF40920507AB
:104230005092060760920707709208073B8D316025
:104240003B8F8AE06ECF4092090750920A07609236
:104250000B0770920C074B8D42604B8F8BE061CF48
:1042600040920D0750920E0760920F077092100750
:104270008B8D84608B8F8CE054CF8091D9068130F8
:1042800081F44F8D423009F0DFCE8091D806803521
:1042900009F4DACE882309F4D7CE20FCD5CE86E106
:1042A00052CE809198068111CFCE20FCB3CE809162
:1042B000A6069091A706A091A806B091A9068093A2
:1042C000E3069093E406A093E506B093E606BCCE21
:1042D000E89426F88091DC06882359F0813009F4AF
:1042E000BBC022961FAE2297A2E0ABAFB1E0B9AF40
:1042F00007C082E022968FAF229791E09BAF19AE64
:104300008091DA06813071F5E7EDCE2EE6E0DE2E03
:10431000F12CE12C2B8DA22EB12CC5010E2C02C04C
:10432000959587950A94E2F780FF12C023E333E363
:104330004BEC51E4D6019E966D917D918D919C91AF
:10434000D1970E948338F60166A777A780AB91AB1F
:10435000FFEFEF1AFF0A24E0C20ED11C33E0E31690
:10436000F104D9F64F8D433049F48091DD06813058
:1043700029F48B8D843011F00C94F52B8CE0EBEB51
:10438000F6E0DE01119601900D928A95E1F7ADA558
:10439000BEA5B1FD69C00091D7060A3009F478C006
:1043A0000C3509F419C19F8D933009F43FC0AB8DD2
:1043B000AA23E1F1B091DB06BFA38091D3069091CF
:1043C000D406A091D506B091D60689A79AA7ABA727
:1043D000BCA797E9A92E96E0B92E27EDC22E26E0BC
:1043E000D22EF12CE12C9B8D892E912CC4010E2C08
:1043F00002C0959587950A94E2F780FD5DC1F501AD
:10440000808D918DA28DB38DF60186A797A7A0AB65
:10441000B1ABFFEFEF1AFF0A24E0A20EB11C34E0AB
:10442000C30ED11C43E0E416F10401F70E3109F488
:1044300094C1053309F4B8C167EE76E086E00C312B
:1044400009F02DC10E94561D882301F18B8D811129
:1044500088C119A61F8EA9C0E1E02296EFAF22976E
:104460001BAEF2E0F9AF4CCF8091DE06873010F042
:104470008DE169CD90919D06891709F48CCFBE011D
:104480006F5F7F4F0E94561D811185CF87E05BCD06
:10449000BB8DB11102C08AE156CDC101807599274B
:1044A000892B09F4EACD6091F8067091F9068091A4
:1044B000FA069091FB060E9466390E94A436673086
:1044C000B8F68091F306843129F0823009F0A3CC4C
:1044D00027FCA1CC662309F474C0615069A767EE7C
:1044E00076E089A50E94561D882381F20091F3068B
:1044F0004090D3065090D4066090D5067090D606B2
:1045000077EDC72E76E0D72EF12CE12C3B8D232FB3
:1045100030E038A72FA38FA198A50E2C02C0959547
:1045200087950A94E2F780FF33C0D6019E968D905E
:104530009D90AD90BC90D197043109F046C0F70131
:10454000EE0FFF1FEE0FFF1FE956F94F20A931A90B
:1045500042A953A9608D718D828D938D0E942B3558
:10456000A50194010E942B35F601608B718B828B23
:10457000938BF2E0EF120CC0A30192010E942B3545
:104580006093EF067093F0068093F1069093F20625
:10459000BFEFEB1AFB0AE4E0CE0ED11CF3E0EF16FE
:1045A000F10409F0B8CF2FEA22228091D8068FA318
:1045B000803509F000C19B8D992309F406C18FE174
:1045C000C2CCE091DE06E9A78ACF50968D929D92EB
:1045D000AD92BC925397DCCF3B8D332309F45BCF74
:1045E0004090D3065090D4066090D5067090D606C1
:1045F00047E9842E46E0942ECE0101967C0157EDCA
:10460000A52E56E0B52ED12CC12CA32FB0E0B8A713
:10461000AFA38FA198A50C2C02C0959587950A94FD
:10462000E2F780FF3EC0F701208131814281538152
:10463000D40158966D917D918D919C915B970E94CC
:104640002B35F50126A537A540A951A90E942B3588
:10465000D5019E966D937D938D939C93D197B2E0F7
:10466000CB120CC0A30192010E942B3560930D0761
:1046700070930E0780930F0790931007FFEFCF1AE8
:10468000DF0A24E0820E911C34E0E30EF11C44E0CA
:10469000A40EB11C83E0C816D10409F0BACF19A644
:1046A00084CFF40180A991A9A2A9B3A9F50186A795
:1046B00097A7A0ABB1ABE2CF053309F4AACED601E0
:1046C0009E964D905D906D907C90D197BFA1B11159
:1046D00033C0F701EE0FFF1FEE0FFF1F21E030E0A8
:1046E0002C0F3D1FE20FF31FD501D0962D913D9168
:1046F0004D915C91D39760817181828193810E94F9
:104700002C35A30192010E942C35F60166A777A7EC
:1047100080AB91ABF2E0EF127CCE29A53AA54BA578
:104720005CA50E942C3560930D0770930E07809353
:104730000F07909310076DCEA3019201D5015896F3
:104740006D917D918D919C915B970E942C35F60126
:1047500066A777A780AB91AB5CCE67EE76E087E08B
:1047600071CEA7E9B6E0E7EDF6E090E080E04B8D92
:10477000242F30E0A901082E02C0559547950A94D0
:10478000E2F740FD0AC058964D915D916D917C9184
:104790005B97408B518B628B738B0196149634968A
:1047A0008330910539F77BCF8091D806823008F4A9
:1047B00076CF8EE1C8CBAF8DA23039F4BFA1B11155
:1047C00073C0EB8DEE2309F48DC02BA12170EBA1FA
:1047D000C101E0FFD8C28E7DFF8DF111937E892B40
:1047E00011F00C94FE2B8E01035F1F4F89E0D8015E
:1047F0001D928A95E9F7222309F4C8C28DA59EA5CA
:10480000867B892B11F00C94012C8091D70685337F
:1048100019F081110C94012C8091A2069091A306AD
:10482000A091A406B091A506898B9A8BAB8BBC8B0B
:104830008091A00690919F06892B4091E3065091AC
:10484000E4066091E5067091E6064D875E876F8706
:10485000788B84608D8B8091870685FF06C085E00C
:1048600097E00E9454028111CFC7B80185E097E01C
:104870000E94F21D8091310681110BC00E940A0432
:10488000892B39F080E2809331060E94270E0E9426
:1048900078068CE0E5E0F7E0AFEAB6E001900D9233
:1048A0008A95E1F780E04FCB20E030E0A9016091EC
:1048B000E3067091E4068091E5069091E6060E9479
:1048C0002136882309F4EBCCFFA1FC38B9F060F461
:1048D000F23059F1F33061F1F13009F076CF3B8DD0
:1048E000311173CF1F8E71CF2FA12E3839F018F0F0
:1048F0002F3809F06ACF9BA190619BA38FA18E589E
:10490000823018F4ABA1A860ABA3BB8DBB2309F424
:10491000C2CD4CE050E065E077E08FEA96E00E947F
:10492000EE39892B09F051CF6DC04BA144604BA3E8
:104930008B8D882309F4AFCDB9ADAB2FB0E0BAAB06
:10494000A9ABFBADEF2FF0E0FEABEDAB81E090E06B
:104950007C0109AC02C0EE0CFF1C0A94E2F70BAC20
:1049600002C0880F991F0A94E2F7E82AF92A2B8DD2
:10497000822F90E08E219F21892B09F439C7FD01F8
:10498000EE0FFF1FEE0FFF1FE952F94FAA0FBB1FDB
:10499000AA0FBB1FA155B94F2D913D914D915C912F
:1049A00066A577A580A991A90E942B352B013C0112
:1049B000EDA9FEA9EE0FFF1FEE0FFF1FE952F94F01
:1049C000ADA9BEA9AA0FBB1FAA0FBB1FA155B94F06
:1049D0002D913D914D915C9166A577A580A991A9F6
:1049E0000E942B354B015C0127FEFFC0E89427F89D
:1049F0004CE050E065E077E08FEA96E00E94EE3907
:104A0000892B11F481E29FCA6091FC067091FD062A
:104A10008091FE069091FF062091DA06213071F414
:104A200023E333E34BEC51E40E9483386093FC06AC
:104A30007093FD068093FE069093FF068091FC061E
:104A40009091FD06A091FE06B091FF0621968CAFD5
:104A50009DAFAEAFBFAF2197A3019201C301B201D9
:104A60000E94833829966CAF7DAF8EAF9FAF299798
:104A7000A5019401C501B4010E9483382D966CAF45
:104A80007DAF8EAF9FAF2D9720E030E040E850E43F
:104A900021966CAD7DAD8EAD9FAD21970E94833880
:104AA00021962CAD3DAD4EAD5FAD21970E94833870
:104AB00029962CAD3DAD4EAD5FAD29970E942B35AB
:104AC0002D962CAD3DAD4EAD5FAD2D970E942B3593
:104AD0006B017C0120E030E0A9010E94213687FDB6
:104AE0008AC6C701B6010E9422396B017C012D964E
:104AF0002CAD3DAD4EAD5FAD2D9729966CAD7DAD26
:104B00008EAD9FAD29970E942C350E9422399B01C2
:104B1000AC01C701B60190580E942B366B017C0195
:104B20009FA1933021F4F7FAF094F7F8F09420E085
:104B300030E0A90121966CAD7DAD8EAD9FAD219782
:104B40000E94213687FF13C0F7FAF094F7F8F0942B
:104B500021968CAD9DADAEADBFAD2197B058809381
:104B6000FC069093FD06A093FE06B093FF0609A9EC
:104B70001AA9000F111F000F111F0951194FA7018A
:104B80009601C501B4010E9483389B01AC01C301A9
:104B9000B2010E942B3520E030E040E05FE30E944C
:104BA0008338D8016D937D938D939C9313970DA9B2
:104BB0001EA9000F111F000F111F0951194FA70146
:104BC0009601C301B2010E948338A50194010E949D
:104BD0002C3520E030E040E05FE30E948338F801AC
:104BE0006083718382839383F0CDC12ED12CE12227
:104BF000FD2083E2EF2809F4A6C9F1EF2F2280916E
:104C0000DA06813041F507ED16E0F12CE12CC60102
:104C10000E2C02C0959587950A94E2F780FF12C08A
:104C200023E333E34BEC51E4D80150966D917D9131
:104C30008D919C9153970E948338F801608B718B02
:104C4000828B938BFFEFEF1AFF0A0C5F1F4F23E05D
:104C5000E216F104E1F6E9A9FAA9EE0FFF1FEE0F43
:104C6000FF1FE951F94FC080D180E280F380A70196
:104C70009601C301B2010E942B352B013C01EDA925
:104C8000FEA9EE0FFF1FEE0FFF1FE951F94F8081C4
:104C90009181A281B38189AB9AABABABBCAB9C01D8
:104CA000AD01C501B4010E942B354B015C01A3018C
:104CB0009201C301B2010E9483382B013C01A5017E
:104CC0009401C501B4010E9483389B01AC01C3016A
:104CD000B2010E942C350E9422394B015C01A701D0
:104CE0009601C701B6010E9483386B017C0129A996
:104CF0003AA94BA95CA9CA01B9010E9483389B015A
:104D0000AC01C701B6010E942C350E9422396B010B
:104D10007C01C092FC06D092FD06E092FE06F09265
:104D2000FF06AC019B01C501B4010E942B354B016C
:104D30005C01E894B7F82AE037ED43EA5BE3C5018C
:104D4000B4010E94433818160CF03FCD20E030E04B
:104D500040E05FE3C501B4010E94433818160CF42B
:104D600051CE2FE632E143E85AE3C701B6010E9473
:104D700083389B01AC01C501B4010E944338181669
:104D80000CF023CD3FCE8E7D9C7F26CD8091870673
:104D9000F090A00681FF12C08FA18150833018F0DF
:104DA000BBA1B064BBA3EB8DEE2309F443C1FF8D1F
:104DB000F23009F03FC12BA120682BA38091F406AB
:104DC0009091F506A091F606B091F7068093AB0698
:104DD0009093AC06A093AD06B093AE068091D90631
:104DE00080939806882311F088E08D8B8091E306EC
:104DF0009091E406A091E506B091E6068093A606A0
:104E00009093A706A093A806B093A9068D879E87C6
:104E1000AF87B88B8090000790900107A0900207A1
:104E2000B0900307A50194016091A2067091A306BA
:104E30008091A4069091A5060E9421369BA19074B2
:104E4000E92E811103C0ABA1A5FF1FC0FF2069F0AF
:104E5000BBA1B7FD0AC040E050E0BA01E11002C0BA
:104E6000B501A4018F2D0E94D41D8091000790915F
:104E70000107A0910207B09103078093A2069093C7
:104E8000A306A093A406B093A506E1100CC08091E0
:104E9000A2069091A306A091A406B091A506898BC5
:104EA0009A8BAB8BBC8B809104078093AA06809170
:104EB000E1069091A006981751F049895A896B89AB
:104EC0007C890E94D41D8091E1068093A0068D8983
:104ED0009091A006892B8D8BF090E00680919F0623
:104EE0008F1569F080913106823029F00E940B1DE8
:104EF0008F2D0E945B098091E00680939F068D892B
:104F000090919F06892B8D8B8091D706843099F4E0
:104F100080913106823079F0C090F806D090F90681
:104F2000E090FA06F090FB060E940B1D40E0C701DE
:104F3000B6010E94DD1C8091DC0680939B06809167
:104F4000DA0680939906EF8DE33071F58091DD06E6
:104F500080939C06811108C010920D0710920E07D5
:104F600010920F0710921007C0900D07D0900E07F7
:104F7000E0900F07F0901007A70196016091D3060B
:104F80007091D4068091D5069091D6060E94213664
:104F9000882351F0C092D306D092D406E092D50671
:104FA000F092D6060E943D1D8091DE0690919D06EE
:104FB000981769F080939D068CE0FE013196ABEB6B
:104FC000B6E001900D928A95E1F70E943D1D809117
:104FD000DB0680939A068091D706863209F47EC05C
:104FE00008F03FC08C3109F45FC08E3109F45CC019
:104FF0008A3009F443C08091D806809397068035A3
:1050000009F449C3BF8DB23009F045C3813009F0BE
:1050100079C0BE01635F7F4F85E097E00E94F21D7B
:105020008CE0E5E0F7E0AFEAB6E001900D928A95FA
:10503000E1F731C330E1F312C1CE9BA190748091AE
:1050400097068150833038F4992309F4B7CE4BA1E9
:1050500040624BA3B3CE9111B1CE8BA180628BA3E2
:10506000ADCE8C3509F440C0863609F443C0883291
:1050700009F0C1CF6FEA76E087E033C067EE76E0F3
:1050800089A50E94421D80919D06F9A5F813B3CF12
:105090008CE0E7EEF6E0ABEBB6E001900D928A957E
:1050A000E1F70E943D1DA7CF8D8981608D8B2F8DEB
:1050B000222329F0B80185E097E00E94F21DB80193
:1050C00087EE96E00E94F21D8CE0E7EEF6E0AFEA94
:1050D000B6E001900D928A95E1F78DCF6FEA76E008
:1050E00086E00E94421D87CF8CE0E5E0F7E0A7EC68
:1050F000B6E0D3CFE7ECF6E08CE0DF011D928A95B5
:10510000E9F7CFCF811105C08D8981608D8BB80102
:1051100083CF8250823008F097C28091FC06909134
:10512000FD06A091FE06B091FF068F8F98A3A9A35C
:10513000BAA3A9AD94E0A99F70011124F701E1552C
:10514000F94FF8A7EFA397012951394F3AA729A79B
:10515000D9014D905D906D907C902081318142818C
:105160005381C301B2010E942C356DA77EA78FA782
:1051700098ABEBADB4E0EB9F800111249801215571
:10518000394F3AAF29AFC8018951994F9CAF8BAFC6
:10519000DC018D909D90AD90BC90F9012081318112
:1051A00042815381C501B4010E942C3569AB7AABB1
:1051B0008BAB9CAB77FA709477F87094D501C401EF
:1051C000B0588B8F9C8FAD8FBE8FF701EB5FF84F80
:1051D0002DA53EA54FA558A960817181828193813B
:1051E0000E942B356B017C01F801EB5FF84F29A978
:1051F0003AA94BA95CA960817181828193810E9447
:105200002B354B015C01A7019601C301B2010E943D
:1052100083386DAB7EAB8FAB98AFA50194016B8DDE
:105220007C8D8D8D9E8D0E9483389B01AC016DA974
:105230007EA98FA998AD0E942C356DAB7EAB8FAB4C
:1052400098AFA5019401C301B2010E9483384B01BC
:105250005C01A70196016B8D7C8D8D8D9E8D0E94CA
:1052600083389B01AC01C501B4010E942B352DA9E7
:105270003EA94FA958AD0E94AB356B017C019BA1A3
:1052800092FF68C12DEB37E346E055EBC701B6014D
:105290000E94433887FD0AC02BED3FE049EC50E403
:1052A000C701B6010E942B356B017C0180907B0603
:1052B00090907C06A0907D06B0907E062F8D38A140
:1052C00049A15AA1CA01B9010E942C35A501940136
:1052D0000E942B35A50194010E9483380E94223937
:1052E0004B015C0120E030E040E05FE3C701B60124
:1052F0000E9483382F8D38A149A15AA10E9483387A
:105300009F77A50194010E942B360E9410370E94BE
:10531000A4367EAB6DABDB01AB2B09F47ACE1D89D5
:1053200090E080E00E94D3364B015C0113FF0EC079
:10533000AC019B016D857E858F8598890E9483389D
:105340006D877E878F87988B177F1D8BA5019401B2
:10535000C701B6010E942B366BA37CA38DA39EA32D
:105360002296EFAD2297B4E0EB9FC00111248C018F
:105370000155194F8B5F984FD8012D913D914D915B
:105380005C91FC0160817181828193810E942B3547
:10539000A50194010E942B3629966CAF7DAF8EAF8C
:1053A0009FAF29972BA13CA14DA15EA1CA01B901D4
:1053B0000E9483389B01AC0160E070E080E090E4E3
:1053C0000E942B356B017C012BEA3AEA4AE25EE34C
:1053D0006BA17CA18DA19EA10E9483384B015C0131
:1053E00020E030E040E850E4C701B6010E942C35CF
:1053F0009B01AC01C501B4010E94833821966CAFBA
:105400007DAF8EAF9FAF219720E030E040E05FE3BB
:10541000C701B6010E94833825966CAF7DAF8EAF71
:105420009FAF25971F8E22242394312CEDA9FEA92E
:10543000E215F30509F4EDCDFF8DFC3008F09EC0B8
:10544000A301920121966CAD7DAD8EAD9FAD2197EC
:105450000E9483386B017C012B8D3C8D4D8D5E8DC0
:1054600025966CAD7DAD8EAD9FAD25970E9483389E
:105470009B01AC01C701B6010E942C357B016C0178
:10548000A301920125966CAD7DAD8EAD9FAD2597A4
:105490000E9483384B015C012B8D3C8D4D8D5E8DC0
:1054A00021966CAD7DAD8EAD9FAD21970E94833866
:1054B0009B01AC01C501B4010E942B352B013C01BD
:1054C0002F8D2F5F2F8F470156018B8E9C8EAD8EB7
:1054D000BE8EA30192016DA57EA58FA598A90E94FD
:1054E0002C35EFA1F8A560837183828393832B8D84
:1054F0003C8D4D8D5E8D69A97AA98BA99CA90E94CE
:105500002C35A9ADBAAD6D937D938D939C93139774
:1055100029962CAD3DAD4EAD5FAD2997F801608168
:105520007181828193810E942C35D8016D937D9386
:105530008D939C931397BE01635F7F4F8FEA96E034
:105540000E94F21D8091320681116ACDBFEF2B1AA5
:105550003B0A6CCF2DEB37E346E055E3C701B601BC
:105560000E94213618160CF4A1CE2BED3FE049EC39
:1055700050E4C701B6010E942C3596CEB10190E0EF
:1055800080E00E94D3362BA13CA14DA15EA10E94D8
:1055900083386B017C010E9426366B8F7C8F8D8F48
:1055A0009E8FC701B6010E9414394B015C01A9A569
:1055B000BAA5CD90DD90ED90FC90F7FAF094F7F855
:1055C000F094ABADBCAD8D919D910D90BC91A02D93
:1055D0008F8F98A3A9A3BAA3A70196016B8D7C8D89
:1055E0008D8D9E8D0E9483382B013C012F8D38A11B
:1055F00049A15AA1C501B4010E9483389B01AC01A5
:10560000C301B2010E942C352B013C01A701960178
:10561000C501B4010E9483386B017C012F8D38A134
:1056200049A15AA16B8D7C8D8D8D9E8D0E948338F2
:105630009B01AC01C701B6010E942B356B8F7C8F9B
:105640008D8F9E8F1F8E45CF8D8984608D8B80912D
:105650003106823009F4E4CC0E940B1D80913206A1
:10566000811119C0FBA1F071FF2E109236062BA1FB
:1056700023FB882780F90E94D70286B1807290911F
:105680001706891719F184E00E943B020E94DF1976
:1056900080E00E94D7028091DF0680939E068823D7
:1056A00011F40C94A31F0E940B1D80919E069091F3
:1056B0003106833009F04DC0923029F088E00E9415
:1056C0004B020E94DF1910929E06ECC8B80185E0DB
:1056D00097E00E94F21D81E08093300682E00E94F4
:1056E0004B020E94DF19809132068111D4CF809144
:1056F00031068111F6CF80913006813031F5FF20DF
:1057000001F18CE0E8E1F6E0A4E2B6E001900D9250
:105710008A95E1F71092300680E00E94D7020E943D
:10572000DF190E94D30D0E94AE090E9475030E94EA
:10573000310980913606882309F472CC0E94A809A9
:10574000AACF85E00E943B02E5CF81E08093360638
:10575000E1CF81E08093970610929B0610929A0603
:105760001092980610929D061092A00610929F0625
:1057700084E6809338068093390680933A06923007
:10578000A1F06BEB76E080E00E94561D882311F4B7
:105790000C9446220E943D1D40E050E0BA0180E09A
:1057A0000E94CA0A80E00E945B098AEC92E00E9493
:1057B000C60781E692E00E94C6070E942C0983CFAB
:1057C00081E00C94A31F82E00C94A31F88E10C9449
:1057D000A31F86E20C94A31F89E10C94A31F84E00D
:1057E0000C94A31F8BE10C94A31F85E20C94A31FC0
:1057F00080E20C94A31F82E20C94A31F84E20C9419
:10580000A31F80E10C94A31F8FE00C94A31FCF93E0
:10581000DF93C0E08C2F0E941C1D811114C01092D8
:1058200011078EE30E9499060E94B5068AE30E9442
:10583000990687E00E94D807C13019F4DF91CF9113
:105840000895C1E0E7CF809111078823A9F30E9452
:10585000521ED82F8EE30E9499060E94B5068AE355
:105860000E9499068D2F0E94E407E6CF1F920F92A7
:105870000FB60F9211242F933F934F935F936F9323
:105880007F938F939F93AF93BF93CF93EF93FF93A8
:105890000E94CB02C82F882389F080FD0E94060E4B
:1058A000C2FF05C080911306826080931306C1FF7A
:1058B00005C080911306886080931306FF91EF91D5
:1058C000CF91BF91AF919F918F917F916F915F9198
:1058D0004F913F912F910F900FBE0F901F901895F1
:1058E0001F920F920FB60F9211242F933F934F9355
:1058F0005F936F937F938F939F93AF93BF93EF9338
:10590000FF9380913106813049F080911406811116
:1059100005C00E94060E81E00E943B02FF91EF91BC
:10592000BF91AF919F918F917F916F915F914F91B7
:105930003F912F910F900FBE0F901F9018951F92BF
:105940000F920FB60F9211248F939F939BB180916A
:10595000F2018C71937E892B8BB915BC9F918F912D
:105960000F900FBE0F901F9018951F920F920FB6B9
:105970000F9211240F931F932F933F934F935F9395
:105980006F937F938F939F93AF93BF93EF93FF9307
:105990008091F401811101C29BB180910402807E4B
:1059A0009F71892B8BB98BB1837E90910302892BD8
:1059B0008BB98091020286BD82E085BD81E0809333
:1059C000F40178948091160290911702892B09F0C6
:1059D000AAC08091180290914402981709F4CAC194
:1059E000E09118022E2F30E087E0E89FF0011124AB
:1059F000E65EFD4FF0931702E093160282819381D9
:105A00009093890080938800808191819093120205
:105A100080931102E481809113028E1761F1E0936B
:105A2000130282E1E89FF0011124E95BFD4FF0933E
:105A30001502E093140284859585A685B785B695F1
:105A4000A795979587958093FD019093FE01A0936C
:105A5000FF01B09300028093F9019093FA01A093A3
:105A6000FB01B093FC018093F5019093F601A093A4
:105A7000F701B093F801A0911402B091150250966D
:105A80008C9150979091F30189278093040287E0CD
:105A9000829FF001839FF00D1124E65EFD4F25816A
:105AA0004D915D916D917C911397022E04C0769576
:105AB0006795579547950A94D2F7409305025093FE
:105AC0000602609307027093080214964D915D914F
:105AD0006D917C911797022E04C076956795579526
