:100000000C9468010C947A010C947A010C94802C65
:100010000C94462C0C947A010C947A010C947A017D
:100020000C947A010C947A010C947A010C94C92CEA
:100030000C947A010C947A010C947A010C947A0154
:100040000C94B32C0C947A010C94002F0C94A02FD8
:100050000C947A010C947A010C947A010C947A0134
:100060000C947A010C947A01084AD73B3BCE016E7E
:1000700084BCBFFDC12F3D6C74319ABD56833DDAFF
:100080003D00C77F11BED9E4BB4C3E916BAAAABE0E
:10009000000000803F05A84CCDB2D44EB93836A937
:1000A000020C50B9918688083CA6AAAA2ABE000074
:1000B00000803F000D0A4772626C20312E316720AC
:1000C0005B27242720666F722068656C705D0D0ABF
:1000D00000244E005B4F50543A005B5645523A3173
:1000E0002E31672E32303138313131323A005B54A3
:1000F0004C4F3A005B4739323A0033300032380017
:100100005B4700204700204D002053002046002080
:10011000540033382E005B47433A47005B484C504D
:100120003A242420242320244720244920244E201C
:1001300024783D76616C20244E783D6C696E652094
:10014000244A3D6C696E652024534C502024432082
:100150002458202448207E2021203F206374726C84
:100160002D785D0D0A00414C41524D3A007C413AD8
:10017000007C4F763A007C57434F3A007C506E3AF1
:10018000007C46533A007C42663A007C57506F73BD
:100190003A007C4D506F733A00536C6565700044B3
:1001A0006F6F723A00436865636B00416C61726DFA
:1001B00000486F6D65004A6F6700486F6C643A00D5
:1001C00052756E0049646C650000007A4300007A45
:1001D0004300007A430000FA430000FA430000FAAB
:1001E0004300A00C4700A00C4700A00C47000048AB
:1001F000C3000048C3000048C30A0000FF010AD73B
:10020000233C6F12033B00007A440000000004000E
:100210000000C8410000FA43FA000000803F0D0AC8
:10022000005B5052423A006572726F723A006F6B17
:100230000D0A00536C656570696E670052657374D2
:100240006F72696E67207370696E646C65005265C9
:1002500073746F72696E672064656661756C747320
:100260000050676D20456E6400436865636B204CE9
:10027000696D69747300436865636B20446F6F72C6
:100280000044697361626C656400456E61626C650F
:10029000640043617574696F6E3A20556E6C6F63CC
:1002A0006B656400272448277C2724582720746F17
:1002B00020756E6C6F636B00526573657420746F8C
:1002C00020636F6E74696E7565005B4D53473A002D
:1002D00011241FBECFEFD8E0DEBFCDBF27E0A0E0E6
:1002E000B1E001C01D92A136B207E1F70E94CA2F0A
:1002F0000C94273A0C9400008F929F92AF92BF9279
:10030000CF92DF92EF92FF920F931F93CF93DF93E1
:100310007C016B01DC01EC91F0E0EF5EF84F808135
:10032000EF018D3229F52296818101E0912CF0E0D8
:1003300010E020E030E0A9015E01E0EDE80FEA30D6
:1003400018F5FF5FF930E0F491101150A5E0B0E02E
:100350000E94003A9B01AC01220F331F441F551F1E
:100360002E0F311D411D511D2196D5018C91E4CFD9
:100370008B3219F0219600E0D9CF22968181FBCFF4
:10038000911006C01F5FF0CFEE3F29F4911003C01B
:1003900099249394E9CFFF23F9F0CA01B9010E948F
:1003A000FF364B015C0120E030E0A9010E944D3690
:1003B00081112BC0002309F445C0B7FAB094B7F8F7
:1003C000B094F60180829182A282B382C151D7405B
:1003D000C150F701C083F1E08F2FDF91CF911F91C2
:1003E0000F91FF90EF90DF90CF90BF90AF909F90D4
:1003F0008F9008952AE037ED43E25CE3C501B40134
:100400000E94AF384B015C011E5F1F3F9CF31F3FF2
:1004100059F42DEC3CEC4CEC5DE3C501B4010E94B9
:10042000AF384B015C01C6CF112321F220E030E050
:1004300040E251E4C501B4010E94AF384B015C01B8
:100440001150F2CFD6018D929D92AD92BC9213972E
:10045000BDCF2FB7F89490911606892B809316067E
:100460002FBF08952FB7F89490911506892B80938C
:1004700015062FBF08959FB7F894809314069FBF69
:1004800008959FB7F8942091130680958223809356
:1004900013069FBF08952FB7F89490911306892BE8
:1004A000809313062FBF0895AF92BF92CF92DF9231
:1004B000EF92FF920F931F93CF93DF93EC0106E629
:1004C00016E05C018CE0A80EB11CC990D990E990AF
:1004D000F99020E030E0A901C701B6010E946F3811
:1004E0001816DCF0F80121913191419151918F0161
:1004F000C701B6010E944D3687FD0FC0CA15DB0546
:1005000021F780E0DF91CF911F910F91FF90EF9045
:10051000DF90CF90BF90AF90089581E0F3CF8F929E
:100520009F92AF92BF92CF92DF92EF92FF920F9382
:100530001F93CF93DF93EB0122E4E22E26E0F22E0D
:100540008C016B018CE0C80ED11C69917991899165
:100550009991F70181909190A190B1907F010E94B3
:100560000137A50194010E945736F80161937193F8
:10057000819391938F01CC15DD0539F7DF91CF91F0
:100580001F910F91FF90EF90DF90CF90BF90AF90B1
:100590009F908F90089596B1892F877061F081E0C8
:1005A000292F227091FD80E090FF8260211101C00F
:1005B000846092FF886008951092170690918706D4
:1005C00097FD03C090E290931706882331F0809145
:1005D000170690E2892780931706089593B18091BA
:1005E000870686FF0BC0967159F091FB882780F92A
:1005F00092FD8260907129F0846008959095F3CF08
:1006000080E00895EBE6F0E08081897E8083E8E673
:10061000F0E080818E7F8083089584B1897E84B9E3
:1006200085B1866185B98091870683FF0BC0809173
:100630006B00866180936B0080916800816080937D
:10064000680008950C9402036F927F928F929F929C
:10065000AF92BF92CF92DF92EF92FF920F931F93D0
:10066000CF93DF93EB018C015B018CE0A80EB11CF2
:1006700089E9682E96E7792E26E9822E3EE7932EA9
:10068000C990D990E990F99020E030E0A901C70124
:10069000B6010E944D368823B9F0A7019601F801F2
:1006A00060817181828193810E9457366B017C0148
:1006B000E894F7F89301A401C701B6010E946F38CE
:1006C000181614F0360147010C5F1F4FCA15DB05E1
:1006D000B9F6B301C401DF91CF911F910F91FF9043
:1006E000EF90DF90CF90BF90AF909F908F907F90D2
:1006F0006F900895E7EFF5E0A8E1B6E04D915D91C8
:100700006D917C9113974083518362837383149618
:100710004D915D916D917C911797448355836683CC
:10072000778318968D919D910D90BC91A02D808717
:100730009187A287B3870895BF92CF92DF92EF92FD
:10074000FF920F931F93CF93DF937C01FC0102A5CF
:1007500013A5D4A5C5A5818980FF33C06091390652
:1007600070E090E080E00E9401372AE037ED43E23C
:100770005CE30E94AF389B01AC01B8018D2F9C2F28
:100780000E94AF388B01D82FC92F20E030E040E81D
:100790005FE3B8018D2F9C2F0E946F38181624F04C
:1007A00000E010E0D0E8CFE3B8018D2F9C2FDF915F
:1007B000CF911F910F91FF90EF90DF90CF90BF905E
:1007C000089582FD17C06091380670E090E080E0E7
:1007D0000E9401372AE037ED43E25CE30E94AF3824
:1007E0009B01AC01B8018D2F9C2F0E94AF388B016B
:1007F000D82FC92FF701B6A0C7A0D0A4F1A49801A3
:100800004D2F5C2F6B2D7C2D8D2D9F2D0E944D36F5
:1008100087FFBBCF0B2D1C2DDD2DCF2DB6CF8091AB
:10082000D5029091F605981739F022E3829FC00116
:1008300011248A529D4F089590E080E00895F89425
:10084000F999FECF92BD81BD81E08FBB20B5862F87
:100850008227082E000C990B50E086239523892BC4
:1008600049F084E16F3F11F060BD84E08FBBF99ADD
:10087000789408952617E1F360BD84E2F7CF9F9244
:10088000AF92BF92CF92DF92EF92FF920F931F939E
:10089000CF93DF935C018A017B01E40EF51EEB012F
:1008A000912C6C01C61AD70ACE018C0D9D1D21E03A
:1008B000911007C0292D990C330B232F221F2227BB
:1008C000221F6991962E920E0E941F04CE15DF05FD
:1008D00059F7692DC501800F911FDF91CF911F91AD
:1008E0000F91FF90EF90DF90CF90BF90AF909F90CF
:1008F0000C941F046AE090E080E00E941F0445E52C
:1009000050E062E476E081E090E00C943F04F999D5
:10091000FECF92BD81BD81E08FBB80B508959F92CF
:10092000AF92BF92CF92DF92EF92FF920F931F93FD
:10093000CF93DF935B018A017C01E40EF51EEC018D
:10094000912C6B01C81AD90AC6018C0F9D1F0E94F9
:10095000870421E0911007C0292D990C330B232F18
:10096000221F2227221F982E920E8993CE15DF0573
:1009700059F7C501800F911F0E94870421E030E0E4
:10098000891511F030E020E0C901DF91CF911F916E
:100990000F91FF90EF90DF90CF90BF90AF909F901E
:1009A0000895CF93DF93C091D102D091D2022097C6
:1009B000C9F08091A20281608093A2026091B80286
:1009C0007091B9028091BA029091BB029B01AC0177
:1009D0000E94AF386A8B7B8B8C8B9D8B1092D202DE
:1009E0001092D102DF91CF9108952F923F924F92B2
:1009F0005F926F927F928F929F92AF92BF92CF92AF
:100A0000DF92EF92FF920F931F93CF93DF9300D06B
:100A100000D0CDB7DEB70091F605002309F486C0FB
:100A200009833981315039831091D302131709F4A6
:100A300066C0C32ED12CE2E33E9FC00111249C016D
:100A40002A523D4F7901F90176888788908CA18CD4
:100A5000628D738D848D958D9B01AC010E945835FC
:100A6000F701268D378D40A151A10E94AF38B62ED7
:100A7000E72EF82E9B83262F372F482F592F672DCF
:100A8000782D892D9A2D0E944D3687FF03C0B72CF3
:100A90007401AB8282E38C9DF0018D9DF00D1124D9
:100AA000EA52FD4F8B2D9E2DAF2DBB81828B938BF8
:100AB000A48BB58BF9818F2FF11101C080E1FF2448
:100AC000FA94F80E3090D5021F1133C0131102C0F2
:100AD0000E94D104E2E31E9FC00111248A529D4F5F
:100AE0009A83898333243394310EF0E13F1201C09D
:100AF000312C82E3282E031185C01093D3020F906E
:100B00000F900F900F90DF91CF911F910F91FF9059
:100B1000EF90DF90CF90BF90AF909F908F907F909D
:100B20006F905F904F903F902F90089520E1298320
:100B300078CF298182E3289F900111242A523D4FCA
:100B40003C832B8322E3E22E8F2C912CFE9CC00150
:100B50001124FC01EA52FD4FFA83E983F11002C02F
:100B600090E1F92EFA94F31002C00E94D104E89C9F
:100B7000C001E99C900D11249C012A523D4F69014E
:100B8000F90146885788608C718CA30192016289B3
:100B90007389848995890E944D36882339F1F6013D
:100BA000628D738D848D958D9B01AC010E945835AB
:100BB000F601268D378D40A151A10E94AF38EB81FF
:100BC000FC8122893389448955890E9458354B011B
:100BD0005C01AC019B01C301B2010E946F38F601B8
:100BE00018165CF4828A938AA48AB58A29813A818C
:100BF0003C832B831F11A8CF6DCF428A538A648A0E
:100C0000758AF4CFC32CD12C329CC00111249C01D5
:100C10002A523D4F7901E981FA81428853886488DC
:100C20007588F90182889388A488B588A501940104
:100C3000C301B2010E944D3687FF26C0E981FA81C7
:100C4000628D738D848D958D9B01AC010E9458350A
:100C5000E981FA81268D378D40A151A10E94AF38DC
:100C6000A30192010E9458352B013C01AC019B016C
:100C7000C501B4010E946F38181634F4F701428A96
:100C8000538A648A758A132D2C9CF0012D9CF00DDB
:100C90001124EA52FD4F26893789408D518D628992
:100CA0007389848995890E944D36811101C0132D65
:100CB0003394F0E13F1201C0312CFA82E9821BCF5C
:100CC00090917306492F80917406282F90FF11C0D0
:100CD00094E080FF10C080E241FD986021FD8064B7
:100CE00042FD906122FD80689093F2018093F301B0
:100CF000089590E0EECF80E0EFCF8091870682FFED
:100D000013C0289A8091F2018093030280917206A9
:100D10008250990B880F81958093020280916F0019
:100D2000826080936F0008952898ECCF0E940F0492
:100D3000892B19F082E00C944B020895E091040194
:100D400091E09E0F993609F490E020916E012917E9
:100D500061F0F0E0EB5FFE4F80839093040180919F
:100D6000C10080628093C10004C02091130624FF5B
:100D7000ECCF0895CF93DF93C1E1D7E08991811142
:100D800003C0DF91CF9108950E949E06F7CF8F9206
:100D90009F92AF92BF92CF92DF92EF92FF920F930A
:100DA0001F93CF93DF93CDB7DEB72D970FB6F8948F
:100DB000DEBF0FBECDBF6B017C01042F20E030E011
:100DC000A9010E944D3687FF07C08DE20E949E0652
:100DD000F7FAF094F7F8F094102F123008F054C09E
:100DE00000FF0AC020E030E040E251E4C701B60154
:100DF0000E94AF386B017C0120E030E040E05FE30F
:100E0000C701B6010E9458350E94C93610E03AE089
:100E1000832E912CA12CB12CE12FF0E061157105EE
:100E200081059105E9F581E090E08C0F9D1FE80FA9
:100E3000F91F80E3101708F445C0101309C0E1E062
:100E4000F0E0EC0FFD1FE10FF11D80E380831F5FD9
:100E5000EE24E394F12CEC0EFD1EE10EF11C1111B9
:100E600034C02D960FB6F894DEBF0FBECDBFDF9114
:100E7000CF911F910F91FF90EF90DF90CF90BF9097
:100E8000AF909F908F90089520E030E048EC52E4BE
:100E9000C701B6010E94AF386B017C0112509DCF93
:100EA000EE24E394F12CEC0EFD1EEE0EFF1EA501C8
:100EB00094010E94D839605DF7016083B901CA01CD
:100EC0001F5FAACF1F5F8193B5CF101303C08EE2BF
:100ED0000E949E06F70182917F010E949E0611509A
:100EE000BECF2091870640E020FF07C02BE832E408
:100EF00041E25DE30E94AF3841E00C94C7062091C7
:100F0000870643E020FF07C02BE832E441E25DE3BF
:100F10000E94AF3844E00C94C7060F931F93CF9301
:100F20008C01C0E0F80161917191819191918F01E3
:100F30000E947F07C23019F08CE20E949E06CF5FAC
:100F4000C33081F7CF911F910F910895CF93DF9315
:100F5000843658F06AE00E94B839C0E3C90F6AE0ED
:100F60000E94B839D0E3D90F04C0C0E0D0E08A3085
:100F7000B0F7805D0E949E06DD2319F08D2F0E9440
:100F80009E06CC2329F08C2FDF91CF910C949E06E6
:100F9000DF91CF910895CF93DF93EC01FE0184910F
:100FA0002196811103C0DF91CF9108950E949E0682
:100FB000F5CF8EE192E00C94CB07CF93C82F87E258
:100FC00092E00E94CB078C2F0E94A607CF910C9431
:100FD000D907811104C08EE292E00C94CB070C94E7
:100FE000DD07CF92DF92EF92FF92CF93DF93D82F5E
:100FF0006A017B01C22F84E20E949E068D2F0E940F
:10100000A6078DE30E949E064C2FC701B6010E94E1
:10101000C706DF91CF91FF90EF90DF90CF900C94B7
:10102000D907CF93DF93D82FC62F84E20E949E0664
:101030008D2F0E94A6078DE30E949E068C2F0E9492
:10104000A607DF91CF910C94D907EF92FF920F93EF
:101050001F93CF93DF936091720670E080E00E944F
:1010600011086091750670E081E00E94110860919E
:10107000730670E082E00E9411086091740670E0CF
:1010800083E00E9411086091870662FB662760F981
:1010900070E084E00E9411086091870666FB662775
:1010A00060F970E085E00E94110880918706082EA3
:1010B000000C990B692F661F6627661F70E086E09B
:1010C0000E9411086091760670E08AE00E94110883
:1010D00040917706509178066091790670917A0672
:1010E00023E08BE00E94F10740917B0650917C0643
:1010F00060917D0670917E0623E08CE00E94F107EE
:1011000060918706617070E08DE00E941108609127
:10111000870665FB662760F970E084E10E9411088C
:101120006091870663FB662760F970E085E10E94A5
:101130001108609187066295617070E086E10E94F7
:1011400011086091880670E087E10E9411084091C3
:10115000890650918A0660918B0670918C0623E077
:1011600088E10E94F10740918D0650918E066091B2
:101170008F067091900623E089E10E94F10760914B
:101180009106709192068AE10E941108409193069F
:1011900050919406609195067091960623E08BE13C
:1011A0000E94F10740917F06509180066091810670
:1011B0007091820620E08EE10E94F1074091830643
:1011C00050918406609185067091860620E08FE13B
:1011D0000E94F107609187066695617070E080E279
:1011E0000E94110884E6F82E10E0C2E4D6E000E088
:1011F000E02EEF0C123011F1133069F11130C9F00B
:10120000488159816A817B8123E08E2D0E94F107FC
:101210000F5F2496033061F78AE0F80E1F5F8CE8B9
:10122000F812E3CFDF91CF911F910F91FF90EF90D4
:1012300008954C855D856E857F85E6CF20E030E0A2
:1012400041E655E4688D798D8A8D9B8D0E945736D5
:10125000AB01BC01D9CF4CA15DA16EA17FA170589B
:10126000D3CF8DE50E949E060C94D907CF93DF93D0
:10127000CDB7DEB72C970FB6F894DEBF0FBECDBF4B
:1012800081E292E00E94CB0764E276E0CE01019613
:101290000E948F02CE0101960E948D078AE30E9470
:1012A0009E06809136060E94A6070E9431092C9660
:1012B0000FB6F894DEBF0FBECDBFDF91CF9108957A
:1012C00090913206911105C086FF04C0439A109296
:1012D0003C0608954398FBCF8093B300811106C06C
:1012E0008091B0008F778093B00008958091B00016
:1012F0008068F9CFE0EBF0E080818F7780832D98D4
:101300000895239A83E08093B00084E08093B10035
:10131000259A20918306309184064091850650914C
:10132000860660917F06709180068091810690917B
:1013300082060E9457359B01AC0160E070E08EE7A9
:1013400093E40E94573660930001709301018093EB
:101350000201909303010C947A0968E176E08FEA28
:1013600096E00C948F02E7EFF5E08CE1DF011D922F
:101370008A95E9F71092D5021092F60581E08093E4
:10138000D4021092D30208954F925F926F927F928F
:10139000AF92BF92CF92DF92EF92FF920F931F9383
:1013A000CF93DF93EC015C012CE0A20EB11C8C0109
:1013B000C12CD12C7601F80141905190619071902F
:1013C0008F0120E030E0A901C301B2010E944D3637
:1013D000882371F0A3019201C301B2010E94AF38CA
:1013E0009B01AC01C701B6010E9458356B017C011D
:1013F0000A151B0501F7C701B6010E944E396B01A2
:101400007C01AC019B0160E070E080E89FE30E94FA
:1014100057362B013C0169917991899199915E012F
:10142000F4E0AF1AB108A30192010E94AF38F501B0
:101430006083718382839383C017D10761F7C701EB
:10144000B601DF91CF911F910F91FF90EF90DF9048
:10145000CF90BF90AF907F906F905F904F90089526
:101460004F925F926F927F928F929F92AF92BF92B4
:10147000CF92DF92EF92FF926B017C018090830606
:1014800090908406A0908506B090860640907F06D6
:10149000509080066090810670908206A3019201B0
:1014A000C501B4010E946F3887FF1BC060913A06E6
:1014B00070E090E080E00E9401372AE037ED43E2DF
:1014C0005CE30E94AF38A70196010E94AF386B0120
:1014D0007C01AC019B01C301B2010E944D3618167C
:1014E000B4F040923E0650923F06609240067092E1
:1014F00041068FEFFF90EF90DF90CF90BF90AF90BD
:101500009F908F907F906F905F904F900895A7016C
:101510009601C501B4010E946F3887FD1CC020E010
:1015200030E0A901C701B6010E944D36811109C002
:1015300010923E0610923F0610924006109241060D
:10154000D9CF80923E0690923F06A0924006B0927C
:10155000410681E0CFCFC0923E06D0923F06E09296
:101560004006F0924106A5019401C701B6010E9410
:1015700057352091000130910101409102015091B5
:1015800003010E94AF380E943C3720E030E040E881
:101590005FE30E9458350E94D036862FABCF9091E2
:1015A000320691110EC081110DC010923E061092AC
:1015B0003F0610924006109241060E947A0910924E
:1015C0003C0608959091870691FF05C0803219F47A
:1015D00040E050E0BA01CB01BA010E94300A0E94FB
:1015E0006C092D9AECCF2F923F924F925F926F929F
:1015F0007F928F929F92AF92BF92CF92DF92EF92A3
:10160000FF920F931F93CF93DF93CDB7DEB7C254F2
:10161000D1090FB6F894DEBF0FBECDBF3B010091DC
:10162000F605202E312C22E3029FA0011124BA01DD
:101630006A527D4F7CAB6BABFB0111922A95E9F7A7
:10164000F3012085FB01218BF301448155816681E3
:101650007781EBA9FCA946A757A760AB71AB21FF27
:10166000F0C02CE0E8E1F6E0DE01599601900D9221
:101670002A95E1F789AB9AAB22E436E021963FAF99
:101680002EAF2197BE01635F7F4F7EAF6DAFCE015E
:1016900049969CAF8BAFEBA9FCA9FAAFE9AF9E01CD
:1016A0002B5D3F4F3EAB2DAB38AF2FAB10E082E34D
:1016B000829D2001839D500C1124B2016A527D4FFE
:1016C0002B01CB010C9623969FAF8EAF239790E111
:1016D000490E511CE9A9FAA96191719181919191E9
:1016E000FAABE9AB2196EEADFFAD219781909190D9
:1016F000A190B1902196FFAFEEAF2197A501940183
:101700000E94AF380E947C38EDADFEAD61937193BD
:1017100081939193FEAFEDAFEBADFCADC190D19055
:10172000E190F190FCAFEBAF6C197D098E099F0938
:101730009B01AC0197FF07C022273327A901261B75
:10174000370B480B590BE9ADFAAD21933193419317
:101750005193FAAFE9AF2396EEADFFAD2397C0806A
:10176000D180E280F380C216D306E406F50610F4B9
:1017700069017A012396EEADFFAD2397C082D18235
:10178000E282F3820E940137A50194010E9457363C
:10179000EFA9F8AD6193719381939193F8AFEFAB9B
:1017A00020E030E0A9010E944D3687FF0BC090E297
:1017B000112321F090E8113009F490E4F2018081C6
:1017C000892B80831F5F133009F084CF80E0CD2800
:1017D000CE28CF2809F4CBC0CE0185960E94C4093B
:1017E0004B015C0122E3229DC001239D900D112439
:1017F0009C012A523D4F7901F901868E978EA0A255
:10180000B1A2BE016B5D7F4F8AE596E00E94240382
:10181000F701628F738F848F958FBE016B5D7F4F51
:101820008EE496E00E942403F70166A377A380A7C5
:1018300091A7118910FF09C062A773A784A795A774
:1018400010C02CE0E7EFF5E00FCFF30120813181EC
:101850004281538113FDA5C0F70122A733A744A7F6
:1018600055A78091D502081711F011FFA0C082E39F
:10187000829DF001839DF00D1124EA52FD4F128AE2
:10188000138A148A158A12A213A214A215A282E343
:10189000829D8001839D100D11240A521D4FF80175
:1018A000818981FD63C08BA99CA90E949C036B0167
:1018B0007C0180900F0690901006A0901106B090C9
:1018C0001206AC019B01C501B4010E944D3687FF91
:1018D00036C1A5019401C501B4010E94AF38F801D9
:1018E000668B778B808F918F82E3829D8001839DB1
:1018F000100D11240A521D4FF80182A093A0A4A03C
:10190000B5A0A501940166897789808D918D0E948B
:101910006F3818162CF4F801868A978AA08EB18E3B
:10192000C0920F06D0921006E0921106F0921206B5
:101930008CE0FE01B596A3E0B6E001900D928A9589
:10194000E1F78CE0FE013D96A7EFB5E001900D9226
:101950008A95E1F78091D4028093F6058F5F8031FC
:1019600009F480E08093D4020E94F50481E0CE5B0C
:10197000DF4F0FB6F894DEBF0FBECDBFDF91CF9122
:101980001F910F91FF90EF90DF90CF90BF90AF909D
:101990009F908F907F906F905F904F903F902F908F
:1019A0000895C501B4010E94AF38F70145CF23E087
:1019B00036E03AAB29AB8E010F5F1F4F6DA97EA9B0
:1019C000645F7F4F7CAF6BAFC12CD12C76010FAB26
:1019D00019AFE9A9FAA981909190A190B190FAABC1
:1019E000E9ABEDA9FEA94190519061907190FEABD9
:1019F000EDABA3019201C501B4010E94AF389B0178
:101A0000AC01C701B6010E9457356B017C01A501ED
:101A10009401C301B2010E945735F801619371939B
:101A2000819391938F012BAD3CAD6DA97EA92617B3
:101A3000370779F62FEE3FEF4FE75FE3C701B601B7
:101A40000E946F3818164CF482E3829DF001839D4A
:101A5000F00D1124EA52FD4F16CF2FEE3FEF4FE766
:101A60005FEBC701B6010E944D3687FF11C082E3CC
:101A7000829DF001839DF00D1124EA52FD4F89E90A
:101A800096E7A6E9BEE782A393A3A4A3B5A3FFCEDE
:101A90008FA999AD0E94C4096FA979AD8AE596E036
:101AA0000E9424034B015C01A701960160E070E0F5
:101AB00080E89FE30E94573520E030E040E05FE39C
:101AC0000E94AF380E944E396B017C01209177064D
:101AD000309178064091790650917A06C501B4019B
:101AE0000E94AF38A70196010E94AF384B015C01FC
:101AF000A701960160E070E080E89FE30E945735FF
:101B00009B01AC01C501B4010E9457366B017C01F9
:101B100020E030E0A9010E944D3687FF03C0C12CB0
:101B2000D12C760182E3829DF001839DF00D11247A
:101B3000EA52FD4FC2A2D3A2E4A2F5A2A8CEA70109
:101B40009601C701B601C9CE80916F008D7F809349
:101B50006F0080918100887F816080938100109266
:101B6000F40180917506909131068F3FA1F4209188
:101B70001406211110C0903881F490E0019778F498
:101B800081E09091870692FF02C091E08927882327
:101B900069F0289A0895943081F780E0F2CFEFE958
:101BA000FFE03197F1F700C00000E8CF28980895D2
:101BB000CF93DF930E94A40DE1EAF2E080E3DF011E
:101BC0001D928A95E9F7C5EFD1E083E2FE011192FB
:101BD0008A95E9F71092D2021092D102109218025F
:101BE0001092440281E0809319021092F4010E9445
:101BF00060068091F3018F878BB1837E9091F20113
:101C0000892B8BB98BB18F719091F301892B8BB993
:101C1000DF91CF9108958091130684FD1CC080E16F
:101C20000E944B020E947A09439890913106892FB5
:101C30008C7221F480913506867069F0943049F4F5
:101C400080911406811103C086E00E943B020C942F
:101C5000A40D83E0FACF08952F923F924F925F92A6
:101C60006F927F928F929F92AF92BF92CF92DF92AC
:101C7000EF92FF920F931F93CF93DF93CDB7DEB711
:101C8000EB970FB6F894DEBF0FBECDBF809135063F
:101C900080FD53C29091180280911902981709F49F
:101CA0004CC28091D1029091D202892B09F07EC062
:101CB0001091350612FF5AC28091F60522E3829FE9
:101CC000C00111248A529D4F9093D2028093D10279
:101CD0004091D1025091D2025A874987452B09F48D
:101CE0002CC20091A20200FF44C21092A2021092E4
:101CF000B4021092B5021092B6021092B702A985F2
:101D0000BA855A962D913D914D915C915D972983AD
:101D10003A834B835C8360E070E080E09FE30E9445
:101D200057366D837E838F839887E985FA85468C45
:101D3000578C60A071A082889388A488B58811FF11
:101D400005C3F2E0F093B302A50194010E94AF38FD
:101D50009B01AC01C301B2010E9457356B017C01AC
:101D600020E030E0A9010E944D3687FFDEC22981C4
:101D70003A814B815C81CA01B9010E945835A301A7
:101D800092010E94AF389B01AC01C501B4010E94D1
:101D900057350E944E396093C0027093C102809300
:101DA000C2029093C30218601093350680914402DA
:101DB000A82FB0E0BA8BA98B27E02A9FF0012B9FB8
:101DC000F00D1124E65EFD4F8091A10284834091C5
:101DD000D1025091D2025A874987DA015E96BC91AE
:101DE000BDA3FA01F78DFEA3DA019096BC91BFA3C3
:101DF000FA01F1A1F8A72091AF023091B002409111
:101E0000B1025091B2026DA17EA18B2F9F2F0E9433
:101E1000573569AB7AAB8BAB9CAB20E030E0A901C6
:101E20000E944D3687FF04C019AA1AAA1BAA1CAA31
:101E30002091BC022D8B3091BD023E8B4091BE02A1
:101E40004F8B5091BF02588F8091C4028D8F90911B
:101E5000C5029E8FA091C602AF8FB091C702B8A3F2
:101E6000E091C802E9A7F091C902FAA72091CA023D
:101E70002BA73091CB023CA77090B8026090B902BA
:101E80004091BA024BAF5091BB025AAF8091B3025E
:101E90008D879091B4029DA7A091B502AEA7B09195
:101EA000B602BFA7E091B702E8ABF091C002FEAB6B
:101EB0002091C1022FAB3091C20238AF4091C302D2
:101EC00049AF29A53AA54BA55CA56D8D7E8D8F8D5B
:101ED00098A10E944D368111C8C352E05DAB9DA10F
:101EE000998FAEA1AA8FBFA1BB8FE8A5EC8F8EE31F
:101EF000C82E83ECD82E8EE2E82E89E3F82E212C12
:101F0000312C2101A701960129A33AA34BA35CA37D
:101F10005D85513009F44AC4A985BA85513008F469
:101F2000D6C3533009F078C45A962D913D914D9106
:101F30005C915D97C701B6010E94AF384B015C010F
:101F40002D893E894F89588D672D762D8BAD9AADA1
:101F50000E9457359B01AC01C501B4010E946F3846
:101F600087FD8DC32D8D3E8D4F8D58A16DA17EA116
:101F70008FA198A50E9457359B01AC010E9458354E
:101F80006B017C012D893E894F89588D672D762DF7
:101F90008BAD9AAD0E9458359B01AC01C701B601CB
:101FA0000E9457366B017C017D886E88BF89BBAF6C
:101FB000E88DEAAF0D8D1E8DFF8DF98328A12D834D
:101FC00031E03D87A7019601C201B1010E94583559
:101FD0001B012C0129A13AA14BA15CA10E944D3605
:101FE00087FF87C4A201910169A17AA18BA19CA15D
:101FF0000E9457356B017C01980149815D816DA577
:102000007EA58FA598A90E944D3687FD31C33D85D9
:102010003093B302872D962DABADBAAD8093B80245
:102020009093B902A093BA02B093BB02E09145022B
:10203000F09146028189811104C09091350693FF89
:1020400031C0A985BA8551969C915197907309F436
:1020500070C49E96CD90DD90ED90FC90D197882332
:10206000B1F02091CC023091CD024091CE0250913E
:10207000CF02672D762D8BAD9AAD0E94AF389B01B4
:10208000AC01C701B6010E94AF386B017C01C701EA
:10209000B6010E94300A8093D00280913506877F76
:1020A0008093350627E0E989FA892E9FC0012F9F8A
:1020B000900D1124AC01465E5D4F3A018091D00233
:1020C000DA0116968C932091AB023091AC024091CC
:1020D000AD025091AE02B80189819D810E94AF3856
:1020E00069877A878B879C870E9436366B017C01D3
:1020F0006091A7027091A8028091A9029091AA0212
:102100000E9436364B015C01A70196010E945735AB
:102110000E94D0366D877E878F87988B2D853E8570
:10212000F30131832083232B09F00EC480913506FF
:1021300081FF0AC4816080933506EB960FB6F89450
:10214000DEBF0FBECDBFDF91CF911F910F91FF90EA
:10215000EF90DF90CF90BF90AF909F908F907F9047
:102160006F905F904F903F902F9008950E940F04C2
:10217000ABCD8091A1028F5F853009F480E0809320
:10218000A102282F30E052E1859FC0011124DC011B
:10219000A95BBD4F7D01B0934602A0934502E9853E
:1021A000FA85808950968C9390E080E0419151911E
:1021B00061917191D701A80FB91F689412F8440F6B
:1021C000551F661F771F1694D1F74D935D936D933E
:1021D0007C93139704968C30910541F7A985BA85B5
:1021E0001C966D917D918D919C911F97B2E1B29F4C
:1021F000A001B39F500D1124FA01E95BFD4F4B0183
:102200005C0123E0880C991CAA1CBB1C2A95D1F701
:1022100084869586A686B7860E94FF366093A702BD
:102220007093A8028093A9029093AA02E985FA8587
:10223000268D378D40A151A10E9457369B01AC01DC
:102240002093AB023093AC024093AD025093AE02A8
:1022500060E070E080EA9FE30E9457366093AF022F
:102260007093B0028093B1029093B2021092A302D5
:102270001092A4021092A5021092A60211FD02C0B3
:1022800003FF42C06091C0027091C1028091C202FE
:102290009091C3026093B8027093B9028093BA021E
:1022A0009093BB029B01AC010E94AF38A985BA850F
:1022B00052966D937D938D939C935597077F0093D2
:1022C000A202D70151961C928091870681FF0FCD03
:1022D000E985FA85818985FF0ACD22A533A544A524
:1022E00055A560E070E080E89FE30E945736609358
:1022F000CC027093CD028093CE029093CF02E1E0A6
:10230000D7015196EC93F3CCE985FA8562897389FC
:10231000848995890E944E396093B8027093B902FE
:102320008093BA029093BB02CCCFC092B402D092F9
:10233000B502E092B602F092B7021092C00210927B
:10234000C1021092C2021092C3022DCD1092B302AC
:102350004092C4025092C5026092C6027092C702B7
:1023600012FF6AC01092C0021092C1021092C20203
:102370001092C302C12CD12C760189859A850E94C6
:102380009C03698B7A8B8B8B9C8B9B01AC010E948D
:10239000AF3869877A878B879C87A50194010E9453
:1023A0004D3687FF93C029853A854B855C85C501ED
:1023B000B4010E9457352D813E814F8158850E947E
:1023C000AF389B01AC01C301B2010E945735609345
:1023D000C4027093C5028093C6029093C70220E0A6
:1023E00030E0A9010E944D3618160CF449C032E0C5
:1023F0003093B30229813A814B815C81CA01B901D2
:102400000E945835A30192010E94AF389B01AC0194
:10241000C501B4010E9457350E944E396093C00235
:102420007093C1028093C2029093C3028091A20272
:1024300088608093A202B7CCE091D502EF5FE031D3
:1024400009F4E0E08091F605C12CD12C76018E17BD
:1024500051F022E32E9FF0011124EA52FD4FC28871
:10246000D388E488F588C701B6010E944E3960938D
:10247000C0027093C1028093C2029093C3027DCFC9
:10248000A701960169857A858B859C850E945735C1
:102490002D813E814F8158850E94AF386093C802DC
:1024A0007093C9028093CA029093CB0289899A895A
:1024B000AB89BC898093BC029093BD02A093BE02FD
:1024C000B093BF0293E09093B3026DCCA701960145
:1024D000C501B4010E9457352D813E814F81588539
:1024E0000E94AF38A30192010E94583520E030E0ED
:1024F00040E05FE30E94AF386D877E878F87988BBF
:1025000020E030E0A9010E946F3818160CF094C04A
:10251000A30192016D857E858F8598890E944D3635
:1025200087FF88C0A701960169857A858B859C8580
:102530000E9457352D813E814F8158850E94AF38CA
:102540009B01AC012093C8023093C9024093CA0298
:102550005093CB026D857E858F8598890E946F3858
:102560001816BCF529893A894B895C892093BC02ED
:102570003093BD024093BE025093BF02A501940167
:1025800069857A858B859C850E944D36811104C0B2
:1025900031E03093B30207CCA501940169857A85B7
:1025A0008B859C850E9457352D813E814F815885B2
:1025B0000E94AF389B01AC01C301B2010E945735A4
:1025C0006093C4027093C5028093C6029093C702C1
:1025D000EACB8D859E85AF85B8898093C4029093A0
:1025E000C502A093C602B093C7028093C80290931D
:1025F000C902A093CA02B093CB0229813A814B81D0
:102600005C81CA01B9010E9458352D853E854F85F0
:1026100058890E94AF38A70196010E9458350E9440
:102620004E396093BC027093BD028093BE029093BA
:10263000BF02B9CB92E047CF8091C0029091C10216
:10264000A091C202B091C3021092C4021092C502BE
:102650001092C6021092C7028093BC029093BD02F2
:10266000A093BE02B093BF029ECB81E08DAB37CC6E
:10267000098F1A8F39813B8F4D814C8F49CC20E0D7
:1026800030E040E05FE3C501B4010E94AF389B0138
:10269000AC01672D762D8BAD9AAD0E945735A70101
:1026A00096010E94AF389B01AC01698D7A8D8B8DAC
:1026B0009C8D0E9457358B0189839D83A5019401D0
:1026C000672D762D8BAD9AAD0E9457356AC05A960C
:1026D0002D913D914D915C915D97C701B6010E948E
:1026E000AF384B015C0120E030E040E05FE30E9446
:1026F000AF38272D362D4BAD5AAD0E945835A70166
:1027000096010E94AF389B01AC01698D7A8D8B8D4B
:102710009C8D0E9457358B0189839D839B01AC0161
:102720006D8D7E8D8F8D98A10E946F3818168CF557
:102730002D8D3E8D4F8D58A16DA17EA18FA198A5A5
:102740000E9457359B01AC010E9458356B017C01FA
:102750002D893E894F89588D672D762D8BAD9AAD89
:102760000E9458359B01AC01C701B6010E94573643
:102770006B017C017D886E88BF89BBAFE88DEAAFB5
:10278000FDA9FD870D8D1E8D2F8D298338A13D83D9
:1027900019CCA5019401672D762D8BAD9AAD0E94C1
:1027A0005835762E672E8BAF9AAF0CCC2D893E898B
:1027B0004F89588DC701B6010E94AF389B01AC010B
:1027C000698D7A8D8B8D9C8D0E9457358B01898305
:1027D0009D8329A53AA54BA55CA50E944D3687FF90
:1027E000F1CB29A53AA54BA55CA5698D7A8D8B8D7A
:1027F0009C8D0E9457352D893E894F89588D0E94A6
:1028000057366B017C0109A51AA54BA549835CA528
:102810005D8382E08D87D6CB5A962D913D914D9167
:102820005C915D97C701B6010E94AF384B015C0116
:10283000AC019B01672D762D8BAD9AAD0E946F3850
:10284000181644F520E030E040E05FE3C501B40134
:102850000E94AF389B01AC01672D762D8BAD9AADF0
:102860000E945735A70196010E94AF389B01AC0129
:10287000698D7A8D8B8D9C8D0E9457358B01898354
:102880009D832DA53EA54FA558A90E946F38181607
:102890000CF414CF2DA53EA54FA558A9698D7A8DAE
:1028A0008B8D9C8D0E9457359B01AC010E94583541
:1028B0006B017C012EA93FA948AD59AD672D762D3E
:1028C0008BAD9AAD0E9458359B01AC01C701B60192
:1028D0000E9457366B017C017EA86FA8B8ADBBAFD4
:1028E000E9ADEAAF0DA51EA5FFA5F98328A92D83A3
:1028F00069CB29A93AA94BA95CA9B80189819D8115
:102900000E946F3818168CF42EE333EC4EE259E334
:1029100069A17AA18BA19CA10E94583569A37AA3D1
:102920008BA39CA3A201910163CB4D854093B3027D
:1029300071CB10923E0610923F0610924006109204
:1029400041061092D002A9CB2091A3023091A4029B
:102950004091A5025091A602C201B1010E945835D2
:102960002B013C0129853A854B855C85C501B40165
:102970000E9457359B01AC01C301B2010E9457363A
:102980004B015C0120EC31EE44E65EE40E94AF387E
:102990000E9436360E94D036603D57E075078105AB
:1029A000910508F066C027E0A989BA892A9FF0013D
:1029B0002B9FF00D1124E65EFD4F158227E0A989BB
:1029C000BA892A9FF0012B9FF00D1124E65EFD4F7E
:1029D0007383628380911902809344028F5F8630F3
:1029E00009F4A1C080931902E091D102F091D202C2
:1029F000C801A981BD81868F978FA0A3B1A3C09282
:102A0000A702D092A802E092A902F092AA02298518
:102A10003A854B855C85C701B6010E945735A501F3
:102A200094010E94AF386093A3027093A402809334
:102A3000A5029093A6022091B4023091B502409174
:102A4000B6025091B702B80189819D810E944D362E
:102A5000811120C9F090350620E030E0A901B801CD
:102A600089819D810E946F3818160CF05FC08F2DF0
:102A700061CB603A3FE0730781059105A0F5A7E0BF
:102A800049895A89A49FF001A59FF00D1124E65EA3
:102A9000FD4FB1E0B583A7E049895A89A49FF001B1
:102AA000A59FF00D1124E65EFD4F2581022E04C086
:102AB00096958795779567950A94D2F74D855E85AB
:102AC00002C0440F551F2A95E2F7518340836115D8
:102AD000710551E08507910508F470CF4FEF5FEF66
:102AE0005383428377CF6034EFE17E078105910500
:102AF00068F447E029893A89429FF001439FF00D2D
:102B00001124E65EFD4F52E05583C5CF27E0A98929
:102B1000BA892A9FF0012B9FF00D1124E65EFD4F2C
:102B200033E03583B8CF109219025ECFF2FC9FCF0D
:102B30001092D2021092D1029091D5028091F605A6
:102B4000891709F4A7C881E0890F803109F480E072
:102B50002091D302921302C08093D3028093D502B6
:102B600099C82F923F924F925F926F927F928F926D
:102B70009F92AF92BF92CF92DF92EF92FF920F930C
:102B80001F93CF93DF93CDB7DEB7A4970FB6F8941A
:102B9000DEBF0FBECDBF10911406112349F181E0B5
:102BA0008093310686E691E00E94CB07812F0E9438
:102BB000A6070E94D90785EF91E00197E1F5115032
:102BC000123088F48AEC92E00E94CB0788EB92E006
:102BD0000E94CB070E94310980E10E94410280914E
:102BE000130684FFFCCF8FB7F894109214068FBFA2
:102BF00010911306112309F4A2C214FF23C081E02F
:102C000080933206A4960FB6F894DEBF0FBECDBFF8
:102C1000DF91CF911F910F91FF90EF90DF90CF90B8
:102C2000BF90AF909F908F907F906F905F904F90EC
:102C30003F902F900895EFE9FFE03197F1F700C042
:102C40000000BBCF10FFD2C08CE0E8E1F6E0DE016F
:102C5000599601900D928A95E1F7BE01675E7F4F0C
:102C6000CE010D960E948F028CE30E949E068091F9
:102C70003106883009F434C108F00FC1813009F4FD
:102C800038C108F428C1823009F436C1843009F40F
:102C90002DC180917606F82FF1709F2E80FF41C1E3
:102CA00080913D06882309F43CC182E991E00E94AD
:102CB000CB07CE010D960E948D078091760681FF8D
:102CC0001DC086E891E00E94CB079091F6058091A7
:102CD000D502981708F474C1815F891B0E94A6076A
:102CE0008CE20E949E068091F1019091F00198176C
:102CF00008F468C18058891B0E94A60781E891E00A
:102D00000E94CB07809131068C7709F45DC16091F8
:102D1000B8027091B9028091BA029091BB020E94F0
:102D200071078CE20E949E0660913E0670913F06FC
:102D3000809140069091410640E00E94C7060E94A3
:102D4000EE02E82E0E94CB02082F86B18072F0902E
:102D50001706F8268E2D802B8F2981F18CE791E0C4
:102D60000E94CB07FF2019F080E50E949E06EE200E
:102D700079F0E0FE03C088E50E949E06E1FE03C0F4
:102D800089E50E949E06E2FE03C08AE50E949E0637
:102D90000023A1F000FF03C084E40E949E0601FF0F
:102DA00003C082E50E949E0602FF03C088E40E94E1
:102DB0009E0603FF03C083E50E949E0680913D06A8
:102DC000882309F405C1815080933D0600913C069B
:102DD000002309F416C1015000933C068EE30E94C3
:102DE0009E060E94D90781E00E944102812F887EC1
:102DF00009F455C180913106982F937009F03EC1B6
:102E00008872A9F080913306807C89F40E94D104F5
:102E100082E08093350680913106803241F480E271
:102E200017FD0CC080913306806880933306809133
:102E30003106811103C091E09093330616FF07C05D
:102E400085FD05C09091330690649093330613FF7F
:102E500005C0807E19F480E18093310615FF0EC114
:102E60008AEC92E00E94CB0786E792E00E94CB07B3
:102E70000E9431098091330687FDFBC09091310695
:102E8000903409F0F3C083FF04C0837E8260809396
:102E9000330680E480933106ECC0803221F198F44F
:102EA000803109F0F6CE8091330687FD1CC08AEB95
:102EB00091E00E94CB078091330680FF2EC080E313
:102EC0000E949E06E6CE8034D1F0803809F0E1CE33
:102ED00089E991E002C084EC91E00E94CB07D9CE51
:102EE00080EC91E0FACF86EB91E0F7CF81EB91E0B7
:102EF000F4CF8BEA91E0F1CF85EA91E0EECF8FE954
:102F000091E00E94CB078091330683FF02C083E3E8
:102F1000D7CF82FF04C085FFD2CF81E3D1CF82E338
:102F2000CFCF4090D3065090D4066090D5067090D5
:102F3000D6065BEBA52E56E0B52E9E012F5F3F4FC8
:102F40006901CE010D967C0100E0F501619171915E
:102F5000819191915F0120853185428553850E9441
:102F60005835F60161937193819391936F0102300B
:102F700041F4A30192010E94583569877A878B87B3
:102F80009C87911012C0F6013497208131814281D3
:102F90005381F70160817181828193810E9457354D
:102FA000F70160837183828393830F5FF4E0EF0EF8
:102FB000F11C033051F6911078CE8BE891E077CE7A
:102FC00081508BCE815097CE60E070E0CB01A7CED0
:102FD000809131068C7799F08DE180933D06809148
:102FE0003C06811103C081E080933C0686E791E0B6
:102FF0000E94CB07CE0101960E948D07E7CE89E0A3
:10300000ECCF809131068C7779F183E180933C0697
:1030100081E791E00E94CB07809138060E94A607C5
:103020008CE20E949E06809139060E94A6078CE2DF
:103030000E949E0680913A060E94A60785B1807282
:10304000F82E439BC3C100E48DE691E00E94CB07BC
:10305000FF2019F083E50E949E06002309F4BECEEE
:1030600086E40E949E06BACE89E0D0CF903809F05F
:1030700010CF8091330680628093330617FF0CC017
:1030800080913106813029F48091330685608093E8
:10309000330680E88093310688EE0E94410211FFDA
:1030A00028C0812F887611F580913106803441F453
:1030B0008091330685FD04C084FFEAC0109231067A
:1030C00080913106882309F4E9C084FF0FC09091F4
:1030D000330690FF0BC0803109F0E0C080913B06C1
:1030E000882309F4DBC0886080933B0682E00E945D
:1030F000410212FF24C09091330680913106807DF9
:1031000009F4E5C0809134068111E1C097FDE1C06A
:103110000E94D1048091D5028093D3020E94F504CD
:103120008091350681FF05C09091330691609093A0
:103130003306897F8093350684E00E944102909196
:103140001506992309F44CC08FB7F8941092150610
:103150008FBF40913806842F90FD84E691FD865FF5
:1031600092FD8A5093FD8F5F94FD8150893C08F059
:1031700088EC8A3008F48AE030913906232F95FDD7
:1031800024E696FD22E397FD29E1481302C02317A8
:1031900039F1809338062093390610923C067090DE
:1031A000D5026090F605172D89E9282E96E7392E6D
:1031B00026E9422E3EE7532E42E3842E1611A4C088
:1031C000C101D20180930F0690931006A0931106BF
:1031D000B09312060E94D1047092D3020E94F504AB
:1031E00010911606112309F44BC08FB7F894109272
:1031F00016068FBF90913A06892F10FD84E611FDC7
:10320000865F12FD8A5013FD8F5F14FD8150893C4B
:1032100008F088EC8A3008F48AE09817A1F09091C1
:10322000310680933A069111C5C04091A206509193
:10323000A3066091A4067091A5068091A0060E9445
:10324000CF0A10923C068091310615FF09C08031EB
:1032500039F490913B069111B3C092E090933B06F4
:10326000107C71F0882311F0887351F010919F0643
:1032700016FFAAC01F7B812F0E94600910939F0632
:10328000809131068C7F09F4BDCC0E942C0EBACC03
:1032900082FF16CF88608093330612CF10923506D6
:1032A0000E940F04892B71F08091330686FD0AC0BD
:1032B0001092330688E0809331060E942C0E0E9403
:1032C0007D0614CF10923306109231060FCF97FF70
:1032D0000AC0109235060E94B3090E94D80D0E94C0
:1032E000AD090E947A038091330685FF08C08F776D
:1032F00081608093330680E4809331061DCF109265
:1033000033061092310618CFA12EB12C189DC001A2
:1033100011248A529D4F0E949C03962EC72ED82EB0
:10332000092F9101A2010E946F388A9C70018B9C29
:10333000F00C112497012A523D4F790118168CF593
:103340009101A201B101C2010E94AF38F701668B61
:10335000778B808F918F8A9CC0018B9C900D11245C
:103360009C012A523D4F7901F90122A033A044A0CB
:1033700055A0A201910166897789808D918D0E9467
:103380006F3818162CF4F701268A378A408E518E32
:103390001F5F103109F410E0292C3C2C4D2C502ECD
:1033A0000DCF292D3C2D4D2D502F692D7C2D8D2D90
:1033B000902FCACF8091350688608093350641CF23
:1033C00090FF4ECF94604ACF106455CF81113CCE10
:1033D00005CDCF92DF92EF92FF921F93CF93DF93B1
:1033E0000E94B11580913306882309F46EC00E94B3
:1033F0000F04009709F03FC0C091A00680919F067E
:10340000C82BC090A206D090A306E090A406F0902E
:10341000A5068091870681FF03C080E20E942902F1
:10342000DC2FD07311E0C07C80913306882309F42F
:103430004CC090913206911148C080FF19C0909104
:103440003106292F207C09F493C082FD23C01092FD
:103450003B0640E050E0BA0180E00E94CF0A80E0E5
:103460000E946009809133068D7F846080933306CB
:103470000E94B115D9CFFC0121892073439908C05E
:10348000C0E0C22BFC01C6A4D7A4E0A8F1A8C1CF1C
:10349000C0E4F7CF903821F58AEC92E00E94CB0788
:1034A00083E392E00E94CB070E94310940E050E0A4
:1034B000BA0180E00E94CF0A80E00E9460090E9469
:1034C000A40D80913206882341F0DF91CF911F91A6
:1034D000FF90EF90DF90CF9008950E94B115F1CF4B
:1034E000903449F40E94CB0280FD05C080913306E0
:1034F0008F7D809333068091330683FFB9CF9091FF
:10350000A006992359F081FD09C08091870681FFAB
:1035100022C08091350688608093350680919F0691
:10352000882371F08091330681FD0AC08C2F0E94A0
:10353000600941E060E070E080E89FE30E94ED1CDC
:103540008091330681FD94CF80618093330682E0C1
:103550000E944B028DCFB701A6018D2F0E94CF0A8A
:1035600041E060E070E080E890E40E94ED1CD6CF7E
:1035700080913B068823C9F181FF0DC08091A00690
:10358000882351F140E050E0BA0180E00E94CF0A68
:1035900010933B066DCF8C7009F46ACF8091A00622
:1035A000882399F08AEC92E00E94CB078CE392E0AA
:1035B0000E94CB070E9431098091870681FF0FC0CE
:1035C0008091350688608093350680913B0683FFA5
:1035D00003C082E00E944B0210923B0649CFB70124
:1035E000A6018D2F0E94CF0AF0CF8091350683FF70
:1035F0003FCFB701A6018D2F0E94CF0A80913506DB
:10360000877F8093350634CF2F923F924F925F92FF
:103610006F927F928F929F92AF92BF92CF92DF92E2
:10362000EF92FF920F931F93CF93DF93CDB7DEB747
:10363000A2970FB6F894DEBF0FBECDBF90913206B1
:10364000911115C1782E9E01235F3F4F3A8F298F2C
:1036500089E0D9011D928A95E9F786E08D8BE2E435
:10366000F6E0FC8FEB8F7F01275F3F4F690110E091
:1036700000E0812C912C5401872D90E09E8F8D8F3E
:10368000802F94E0002321F090E1013009F498E0CC
:10369000D6019D936D01ED8DFE8D02C0F595E795E8
:1036A0008A95E2F7E0FF1BC020E030E040EC5FEBE2
:1036B000D70194966D917D918D919C9197970E94E1
:1036C000AF38362E472E582E692EA50194010E9440
:1036D0004D3687FD04C0832C942CA52CB62C0F5F8F
:1036E0001F4FB4E0EB0EF11C0330110549F620909A
:1036F0008D0630908E0640908F065090900684E0A4
:10370000682E01E068E176E0CE0101960E948F020A
:1037100080918806E82FF0E0FAA3E9A3FE01319634
:1037200028E136E038A32F8F6901F12C10E090E0FA
:1037300080E0B501A40170582D8D3E8D082E02C089
:10374000359527950A94E2F720FF26C0F394D60119
:103750001D921D921D921C92139729A13AA1082E29
:1037600002C0359527950A94E2F720FF07C0002391
:1037700039F0408351836283738306C00023C9F309
:1037800080829182A282B382A6E1B0E0AC0FBD1F1D
:10379000A80FB91F2C91122B01963496B4E0CB0ED2
:1037A000D11C8330910541F66F2D70E090E080E0F0
:1037B0000E94FF360E944E3910933706A2019101F4
:1037C0000E94AF386D877E878F87988BBE01635FBD
:1037D0007F4FCE0101960E94F30AE4E0E0933506A4
:1037E0000E942C0E0E947D060023E9F00E94EE024A
:1037F000FE01769630E020E090E06191462F412373
:1038000059F0AC01022E02C0559547950A94E2F793
:1038100040FF02C0609516232F5F3F4F23303105D4
:1038200061F7109337060E942C0E80911306847363
:1038300009F4B3C01091130614FF03C086E00E9480
:103840003B0215FF03C087E00E943B020111C1C08B
:103850000E94EE02872119F088E00E943B028091CD
:1038600014068823E9F00E940B0E0E94E919A29623
:103870000FB6F894DEBF0FBECDBFDF91CF911F9181
:103880000F91FF90EF90DF90CF90BF90AF909F90FF
:103890008F907F906F905F904F903F902F90089502
:1038A00084E00E9441020E94D80D8091910690917F
:1038B0009206019708F076C0E1E00E27C0909306CB
:1038C000D0909406E0909506F0909606002309F4B7
:1038D00070C020E030E040EA50E4C701B6010E9429
:1038E000AF384B015C012090890630908A064090E9
:1038F0008B0650908C066A94611004CF2090880645
:10390000312C2601370177FA709477F8709410E023
:1039100000E08D8D9E8D002E02C0959587950A94AE
:10392000E2F780FF26C0AB8DBC8D8D909D90AD9051
:10393000BC901397C101002E02C0959587950A94FB
:10394000E2F780FF41C094962D913D914D915C919D
:103950009797C701B6010E945835A50194010E94AE
:10396000AF380E947C38EF8DF8A160837183828329
:1039700093830F5F1F4F2F8D38A12C5F3F4F38A3CC
:103980002F8F8B8D9C8D04969C8F8B8F0330110510
:1039900009F0BFCF109235066ACF812F8C7109F0E4
:1039A00023CF81CFAFE9BFE01197F1F700C000004E
:1039B00080CF20908D0630908E0640908F065090DC
:1039C00090064601570197CFA5019401C301B201AA
:1039D000C6CF12FF44CF89E040CF1F93CF93DF9330
:1039E000142F20E030E040EA51E40E94AF380E94FA
:1039F00036360E94D036EB012097C9F0809132060E
:103A0000811115C011110DC00E94E9192FEF80E737
:103A100092E0215080409040E1F700C000002197E3
:103A2000EBCF0E94B1158091330681FFEFCFDF917C
:103A3000CF911F9108950E9496060E94E9198091E6
:103A40003206811108C00E940F04892BB1F78091C2
:103A50003106883091F30895CF93DF9391E5899FE4
:103A6000E0011124DD5F40E550E0BE0181E197E017
:103A70000E948F04892B79F4109211070E941B1D5C
:103A800040E550E061E177E0CE010E943F0480E034
:103A9000DF91CF91089581E0FBCF0E941B1D109212
:103AA0003D0608950F931F93CF93C82F8B010E945B
:103AB0001B1D2DE0C29FC00111244CE050E0B80155
:103AC0009E5FCF911F910F910C943F041F93CF9352
:103AD000DF93182FEB018DE0189FB00111247E5F5A
:103AE0004CE050E0CE010E948F04892B71F48CE0F1
:103AF000FE0111928A95E9F7BE01812F0E94521DA5
:103B000080E0DF91CF911F91089581E0FACFEF928D
:103B1000FF920F931F93CF93DF93CDB7DEB72C9710
:103B20000FB6F894DEBF0FBECDBF182F80FF0BC0BD
:103B300085E5E9ECF1E0A2E4B6E005900D928A9506
:103B4000E1F70E947A0411FF10C0CE0101967C01BA
:103B50008CE0F70111928A95E9F700E0B701802F18
:103B60000E94521D0F5F0830C9F712FF14C060E0B9
:103B700080E093E00E941F0460E081E093E00E94F7
:103B80001F0460E081E593E00E941F0460E082E58D
:103B900093E00E941F0413FF0AC060E08EEA93E0E6
:103BA0000E941F0460E08FEA93E00E941F042C969D
:103BB0000FB6F894DEBF0FBECDBFDF91CF911F913E
:103BC0000F91FF90EF900895CF92DF92EF92FF92C6
:103BD000CF9390913106923079F06A017B01C82F22
:103BE0000E941B1DB701A6018C2FCF91FF90EF9073
:103BF000DF90CF900C94CF0ACF91FF90EF90DF90A1
:103C0000CF900895FF920F931F93CF93DF938C0172
:103C1000EB018091870685FF23C0F090310680E29A
:103C2000F81611F1C8010E9454028823C9F081E0FE
:103C30008093340688E0F8120CC00E944B020E9468
:103C4000E9198091320681110BC0809131068111F2
:103C5000F6CF0E940B0E82E00E943B020E94E919FF
:103C600080913106823041F10E94E919809132063B
:103C7000811122C09091D5028091D402981303C083
:103C80000E949606F1CFBE01C8010E94F30A81117D
:103C900013C08091870681FF0FC0888584FF0CC008
:103CA0004C815D816E817F8180E1DF91CF911F9199
:103CB0000F91FF900C94E41DDF91CF911F910F9114
:103CC000FF9008952F923F924F925F926F927F9252
:103CD0008F929F92AF92BF92CF92DF92EF92FF921C
:103CE0000F931F93CF93DF93CDB7DEB7CC54D10999
:103CF0000FB6F894DEBF0FBECDBFE7EDF6E08AE366
:103D0000DF011D928A95E9F78BE0E7E9F6E0A8ED7F
:103D1000B6E001900D928A95E1F780911107843207
:103D2000A1F01A8E1BA2312C212C1EA61DA610E07C
:103D30001B8E1F8EEE24E394F12CAAE0AA2EB12C48
:103D4000B1E68B2EB3E09B2E4EC181E08093D80666
:103D50001092D90683E08A8FB1E0BBA3E4CF9FEB3A
:103D60009D0D9A3110F00C94F02B8F5F8A8FBE015D
:103D70006A5E7F4FCE014A960E947C01882311F42F
:103D80000C94F32B4E885F88688C798CC301B20148
:103D90000E9492390E94D036062F70E090E080E0B9
:103DA0000E9401379B01AC01C301B2010E9457354B
:103DB00020E030E048EC52E40E94AF380E941C3909
:103DC0000E94D036CB01E7E4DE1629F1FDE4DF16D0
:103DD00009F465C1EAEBED0DE53108F02CC00E2EBB
:103DE000000CFF0BEA50F14E0C94FA3998201B1F7F
:103DF0001B1FC520D020DB20E6201B1FEA201B1F35
:103E0000F8201B1F02210C2116211B1F1B1F1B1F2B
:103E1000262133214021083209F4DDC030F5043178
:103E200060F4013108F098C0043009F474C0B0F0B7
:103E30000A3009F468C084E196C00C3109F463C00B
:103E400040F40631C0F725E1201B2093DA0626E076
:103E500087C00E3109F457C0063269F74F8D411102
:103E60000C94F62BA2E0AF8F28C00D3309F4AEC03E
:103E7000E0F4053309F44FC088F40B3211F001333C
:103E8000D1F6BF8DB1110C94F62B013309F095C01A
:103E90001092DD06E3E0EF8F28E04FC00C3358F6B8
:103EA00006530093DE0629E05BC00C3508F50A35A1
:103EB00008F073C0003509F0BECF0093D80621E0AA
:103EC000063209F04DC08431910551F08E319105D3
:103ED00039F08832910521F08233910509F0ABCF9A
:103EE000B5010E94C43966576093D80621E025C009
:103EF0000C3549F00F3508F09ECF2EE5201B20939E
:103F0000D90625E02DC0009731F42F8D21110C9496
:103F1000F62B31E03F8F0093D706202F2D7F2C31D9
:103F200019F020E00C35E1F4009719F00A9709F038
:103F300082CF600F6093D70620E0C70102C0880FD0
:103F4000991F2A95E2F72DA53EA528233923232B77
:103F500009F443C085E107C001510093DC0622E06B
:103F6000892B59F387E1C45BDF4F0FB6F894DEBFAE
:103F70000FBECDBFDF91CF911F910F91FF90EF90BA
:103F8000DF90CF90BF90AF909F908F907F906F9079
:103F90005F904F903F902F900895892B29F40A55F8
:103FA0000093DB0623E0C9CF6A30710509F043CFE7
:103FB0000A3509F440CF24E0C0CF0A9709F03BCF7F
:103FC000F1E0F093DD0623E02F8F66CF892B09F017
:103FD00032CF2AE0B2CF27E0C3CFADA5BEA5A82B34
:103FE000B92BBEA7ADA78A8DE82FF0E0EF5EF84FA2
:103FF000D080D110B4CEBB8DBB2329F0EF8DE11161
:1040000002C0F2E0FF8F25FE0FC08091F406909170
:10401000F506A091F606B091F70681389649A849B1
:10402000B10514F00C94022C3BA1332309F435C1E3
:1040300020FE45C18091DA068130B1F423E333E3F9
:104040004BEC51E46091E3067091E4068091E50643
:104050009091E6060E94AF386093E3067093E40601
:104060008093E5069093E60630FC10C08091A2068E
:104070009091A306A091A406B091A5068093000795
:1040800090930107A0930207B09303078091D7068E
:10409000843009F02FC126FC2BC18CE164CF892B21
:1040A00009F060CF063050F4033098F00430D9F0B6
:1040B00080E10530C9F41092E10618C0083008F418
:1040C000BACE0A3048F10E3109F0B5CE0093DF06C2
:1040D00004C0002321F00130C9F78BE008C0B3E031
:1040E000B093DF06FACF80E28093E1068CE0F7011F
:1040F00002C0EE0FFF1F8A95E2F7CF012DA53EA566
:104100002E233923232B09F025CF2DA53EA52E2BB9
:10411000392B3EA72DA767CF093039F08091E006F3
:1041200080648093E0068DE0E2CF1092E006FBCF42
:104130004092E3065092E4066092E5067092E6062D
:1041400080E06701082E02C0CC0CDD1C0A94E2F767
:10415000960122213321232B11F00C94FC2BD40146
:1041600002C0B595A7958A95E2F7A0FF0BC020E0A5
:1041700030E0A901C301B2010E944D3687FF02C0A1
:104180000C94FF2B2C283D282ECF4092E70650920E
:10419000E8066092E9067092EA06116081E0D1CFEC
:1041A0004092EB065092EC066092ED067092EE069D
:1041B000126082E0C6CF4092EF065092F006609205
:1041C000F1067092F206146083E0BBCF0093F30611
:1041D00084E0B7CFC301B2010E94C9366093F406F0
:1041E0007093F5068093F6069093F70685E0A9CFC5
:1041F0004092F8065092F9066092FA067092FB0619
:1042000086E09FCF4092FC065092FD066092FE062B
:104210007092FF0687E095CF409200075092010709
:10422000609202077092030788E08BCF20E030E0B5
:104230004FE753E4C301B2010E946F38181614F41B
:104240000C94F92B0093040789E07BCF409205077B
:104250005092060760920707709208073B8D316005
:104260003B8F8AE06ECF4092090750920A07609216
:104270000B0770920C074B8D42604B8F8BE061CF28
:1042800040920D0750920E0760920F077092100730
:104290008B8D84608B8F8CE054CF8091D9068130D8
:1042A00081F44F8D423009F0DFCE8091D806803501
:1042B00009F4DACE882309F4D7CE20FCD5CE86E1E6
:1042C00052CE809198068111CFCE20FCB3CE809142
:1042D000A6069091A706A091A806B091A906809382
:1042E000E3069093E406A093E506B093E606BCCE01
:1042F000E89426F88091DC06882359F0813009F48F
:10430000BBC022961FAE2297A2E0ABAFB1E0B9AF1F
:1043100007C082E022968FAF229791E09BAF19AE43
:104320008091DA06813071F5E7EDCE2EE6E0DE2EE3
:10433000F12CE12C2B8DA22EB12CC5010E2C02C02C
:10434000959587950A94E2F780FF12C023E333E343
:104350004BEC51E4D6019E966D917D918D919C918F
:10436000D1970E94AF38F60166A777A780AB91ABD3
:10437000FFEFEF1AFF0A24E0C20ED11C33E0E31670
:10438000F104D9F64F8D433049F48091DD06813038
:1043900029F48B8D843011F00C94052C8CE0EBEB20
:1043A000F6E0DE01119601900D928A95E1F7ADA538
:1043B000BEA5B1FD69C00091D7060A3009F478C0E6
:1043C0000C3509F419C19F8D933009F43FC0AB8DB2
:1043D000AA23E1F1B091DB06BFA38091D3069091AF
:1043E000D406A091D506B091D60689A79AA7ABA707
:1043F000BCA797E9A92E96E0B92E27EDC22E26E09C
:10440000D22EF12CE12C9B8D892E912CC4010E2CE7
:1044100002C0959587950A94E2F780FD5DC1F5018C
:10442000808D918DA28DB38DF60186A797A7A0AB45
:10443000B1ABFFEFEF1AFF0A24E0A20EB11C34E08B
:10444000C30ED11C43E0E416F10401F70E3109F468
:1044500094C1053309F4B8C167EE76E086E00C310B
:1044600009F02DC10E94661D882301F18B8D8111F9
:1044700088C119A61F8EA9C0E1E02296EFAF22974E
:104480001BAEF2E0F9AF4CCF8091DE06873010F022
:104490008DE169CD90919D06891709F48CCFBE01FD
:1044A0006F5F7F4F0E94661D811185CF87E05BCDD6
:1044B000BB8DB11102C08AE156CDC101807599272B
:1044C000892B09F4EACD6091F8067091F906809184
:1044D000FA069091FB060E9492390E94D03667300E
:1044E000B8F68091F306843129F0823009F0A3CC2C
:1044F00027FCA1CC662309F474C0615069A767EE5C
:1045000076E089A50E94661D882381F20091F3065A
:104510004090D3065090D4066090D5067090D60691
:1045200077EDC72E76E0D72EF12CE12C3B8D232F93
:1045300030E038A72FA38FA198A50E2C02C0959527
:1045400087950A94E2F780FF33C0D6019E968D903E
:104550009D90AD90BC90D197043109F046C0F70111
:10456000EE0FFF1FEE0FFF1FE956F94F20A931A9EB
:1045700042A953A9608D718D828D938D0E9457350C
:10458000A50194010E945735F601608B718B828BD7
:10459000938BF2E0EF120CC0A30192010E945735F9
:1045A0006093EF067093F0068093F1069093F20605
:1045B000BFEFEB1AFB0AE4E0CE0ED11CF3E0EF16DE
:1045C000F10409F0B8CF2FEA22228091D8068FA3F8
:1045D000803509F000C19B8D992309F406C18FE154
:1045E000C2CCE091DE06E9A78ACF50968D929D92CB
:1045F000AD92BC925397DCCF3B8D332309F45BCF54
:104600004090D3065090D4066090D5067090D606A0
:1046100047E9842E46E0942ECE0101967C0157EDA9
:10462000A52E56E0B52ED12CC12CA32FB0E0B8A7F3
:10463000AFA38FA198A50C2C02C0959587950A94DD
:10464000E2F780FF3EC0F701208131814281538132
:10465000D40158966D917D918D919C915B970E94AC
:104660005735F50126A537A540A951A90E94573510
:10467000D5019E966D937D938D939C93D197B2E0D7
:10468000CB120CC0A30192010E94573560930D0715
:1046900070930E0780930F0790931007FFEFCF1AC8
:1046A000DF0A24E0820E911C34E0E30EF11C44E0AA
:1046B000A40EB11C83E0C816D10409F0BACF19A624
:1046C00084CFF40180A991A9A2A9B3A9F50186A775
:1046D00097A7A0ABB1ABE2CF053309F4AACED601C0
:1046E0009E964D905D906D907C90D197BFA1B11139
:1046F00033C0F701EE0FFF1FEE0FFF1F21E030E088
:104700002C0F3D1FE20FF31FD501D0962D913D9147
:104710004D915C91D39760817181828193810E94D8
:104720005835A30192010E945835F60166A777A774
:1047300080AB91ABF2E0EF127CCE29A53AA54BA558
:104740005CA50E94583560930D0770930E07809307
:104750000F07909310076DCEA3019201D5015896D3
:104760006D917D918D919C915B970E945835F601DA
:1047700066A777A780AB91AB5CCE67EE76E087E06B
:1047800071CEA7E9B6E0E7EDF6E090E080E04B8D72
:10479000242F30E0A901082E02C0559547950A94B0
:1047A000E2F740FD0AC058964D915D916D917C9164
:1047B0005B97408B518B628B738B0196149634966A
:1047C0008330910539F77BCF8091D806823008F489
:1047D00076CF8EE1C8CBAF8DA23039F4BFA1B11135
:1047E00073C0EB8DEE2309F48DC02BA12170EBA1DA
:1047F000C101E0FFD8C28E7DFF8DF111937E892B20
:1048000011F00C940E2C8E01035F1F4F89E0D8012C
:104810001D928A95E9F7222309F4C8C28DA59EA5A9
:10482000867B892B11F00C94112C8091D70685334F
:1048300019F081110C94112C8091A2069091A3067D
:10484000A091A406B091A506898B9A8BAB8BBC8BEB
:104850008091A00690919F06892B4091E30650918C
:10486000E4066091E5067091E6064D875E876F87E6
:10487000788B84608D8B8091870685FF06C085E0EC
:1048800097E00E9454028111CFC7B80185E097E0FC
:104890000E94021E8091310681110BC00E940F04FC
:1048A000892B39F080E2809331060E942C0E0E9401
:1048B0007D068CE0E5E0F7E0AFEAB6E001900D920E
:1048C0008A95E1F780E04FCB20E030E0A9016091CC
:1048D000E3067091E4068091E5069091E6060E9459
:1048E0004D36882309F4EBCCFFA1FC38B9F060F415
:1048F000F23059F1F33061F1F13009F076CF3B8DB0
:10490000311173CF1F8E71CF2FA12E3839F018F0CF
:104910002F3809F06ACF9BA190619BA38FA18E587D
:10492000823018F4ABA1A860ABA3BB8DBB2309F404
:10493000C2CD4CE050E065E077E08FEA96E00E945F
:104940001A3A892B09F051CF6DC04BA144604BA39B
:104950008B8D882309F4AFCDB9ADAB2FB0E0BAABE6
:10496000A9ABFBADEF2FF0E0FEABEDAB81E090E04B
:104970007C0109AC02C0EE0CFF1C0A94E2F70BAC00
:1049800002C0880F991F0A94E2F7E82AF92A2B8DB2
:10499000822F90E08E219F21892B09F439C7FD01D8
:1049A000EE0FFF1FEE0FFF1FE952F94FAA0FBB1FBB
:1049B000AA0FBB1FA155B94F2D913D914D915C910F
:1049C00066A577A580A991A90E9457352B013C01C6
:1049D000EDA9FEA9EE0FFF1FEE0FFF1FE952F94FE1
:1049E000ADA9BEA9AA0FBB1FAA0FBB1FA155B94FE6
:1049F0002D913D914D915C9166A577A580A991A9D6
:104A00000E9457354B015C0127FEFFC0E89427F850
:104A10004CE050E065E077E08FEA96E00E941A3AB9
:104A2000892B11F481E29FCA6091FC067091FD060A
:104A30008091FE069091FF062091DA06213071F4F4
:104A400023E333E34BEC51E40E94AF386093FC0660
:104A50007093FD068093FE069093FF068091FC06FE
:104A60009091FD06A091FE06B091FF0621968CAFB5
:104A70009DAFAEAFBFAF2197A3019201C301B201B9
:104A80000E94AF3829966CAF7DAF8EAF9FAF29974C
:104A9000A5019401C501B4010E94AF382D966CAFF9
:104AA0007DAF8EAF9FAF2D9720E030E040E850E41F
:104AB00021966CAD7DAD8EAD9FAD21970E94AF3834
:104AC00021962CAD3DAD4EAD5FAD21970E94AF3824
:104AD00029962CAD3DAD4EAD5FAD29970E9457355F
:104AE0002D962CAD3DAD4EAD5FAD2D970E94573547
:104AF0006B017C0120E030E0A9010E944D3687FD6A
:104B00008AC6C701B6010E944E396B017C012D9601
:104B10002CAD3DAD4EAD5FAD2D9729966CAD7DAD05
:104B20008EAD9FAD29970E9458350E944E399B014A
:104B3000AC01C701B60190580E9457366B017C0149
:104B40009FA1933021F4F7FAF094F7F8F09420E065
:104B500030E0A90121966CAD7DAD8EAD9FAD219762
:104B60000E944D3687FF13C0F7FAF094F7F8F094DF
:104B700021968CAD9DADAEADBFAD2197B058809361
:104B8000FC069093FD06A093FE06B093FF0609A9CC
:104B90001AA9000F111F000F111F0951194FA7016A
:104BA0009601C501B4010E94AF389B01AC01C3015D
:104BB000B2010E94573520E030E040E05FE30E9400
:104BC000AF38D8016D937D938D939C9313970DA966
:104BD0001EA9000F111F000F111F0951194FA70126
:104BE0009601C301B2010E94AF38A50194010E9451
:104BF000583520E030E040E05FE30E94AF38F80134
:104C00006083718382839383F0CDC12ED12CE12206
:104C1000FD2083E2EF2809F4A6C9F1EF2F2280914D
:104C2000DA06813041F507ED16E0F12CE12CC601E2
:104C30000E2C02C0959587950A94E2F780FF12C06A
:104C400023E333E34BEC51E4D80150966D917D9111
:104C50008D919C9153970E94AF38F801608B718BB6
:104C6000828B938BFFEFEF1AFF0A0C5F1F4F23E03D
:104C7000E216F104E1F6E9A9FAA9EE0FFF1FEE0F23
:104C8000FF1FE951F94FC080D180E280F380A70176
:104C90009601C301B2010E9457352B013C01EDA9D9
:104CA000FEA9EE0FFF1FEE0FFF1FE951F94F8081A4
:104CB0009181A281B38189AB9AABABABBCAB9C01B8
:104CC000AD01C501B4010E9457354B015C01A30140
:104CD0009201C301B2010E94AF382B013C01A50132
:104CE0009401C501B4010E94AF389B01AC01C3011E
:104CF000B2010E9458350E944E394B015C01A70158
:104D00009601C701B6010E94AF386B017C0129A949
:104D10003AA94BA95CA9CA01B9010E94AF389B010D
:104D2000AC01C701B6010E9458350E944E396B0193
:104D30007C01C092FC06D092FD06E092FE06F09245
:104D4000FF06AC019B01C501B4010E9457354B0120
:104D50005C01E894B7F82AE037ED43EA5BE3C5016C
:104D6000B4010E946F3818160CF03FCD20E030E0FF
:104D700040E05FE3C501B4010E946F3818160CF4DF
:104D800051CE2FE632E143E85AE3C701B6010E9453
:104D9000AF389B01AC01C501B4010E946F381816F1
:104DA0000CF023CD3FCE8E7D9C7F26CD8091870653
:104DB000F090A00681FF12C08FA18150833018F0BF
:104DC000BBA1B064BBA3EB8DEE2309F443C1FF8DFF
:104DD000F23009F03FC12BA120682BA38091F4068B
:104DE0009091F506A091F606B091F7068093AB0678
:104DF0009093AC06A093AD06B093AE068091D90611
:104E000080939806882311F088E08D8B8091E306CB
:104E10009091E406A091E506B091E6068093A6067F
:104E20009093A706A093A806B093A9068D879E87A6
:104E3000AF87B88B8090000790900107A090020781
:104E4000B0900307A50194016091A2067091A3069A
:104E50008091A4069091A5060E944D369BA1907466
:104E6000E92E811103C0ABA1A5FF1FC0FF2069F08F
:104E7000BBA1B7FD0AC040E050E0BA01E11002C09A
:104E8000B501A4018F2D0E94E41D8091000790912F
:104E90000107A0910207B09103078093A2069093A7
:104EA000A306A093A406B093A506E1100CC08091C0
:104EB000A2069091A306A091A406B091A506898BA5
:104EC0009A8BAB8BBC8B809104078093AA06809150
:104ED000E1069091A006981751F049895A896B898B
:104EE0007C890E94E41D8091E1068093A0068D8953
:104EF0009091A006892B8D8BF090E00680919F0603
:104F00008F1569F080913106823029F00E941B1DB7
:104F10008F2D0E9460098091E00680939F068D8905
:104F200090919F06892B8D8B8091D706843099F4C0
:104F300080913106823079F0C090F806D090F90661
:104F4000E090FA06F090FB060E941B1D40E0C701AE
:104F5000B6010E94ED1C8091DC0680939B06809137
:104F6000DA0680939906EF8DE33071F58091DD06C6
:104F700080939C06811108C010920D0710920E07B5
:104F800010920F0710921007C0900D07D0900E07D7
:104F9000E0900F07F0901007A70196016091D306EB
:104FA0007091D4068091D5069091D6060E944D3618
:104FB000882351F0C092D306D092D406E092D50651
:104FC000F092D6060E944D1D8091DE0690919D06BE
:104FD000981769F080939D068CE0FE013196ABEB4B
:104FE000B6E001900D928A95E1F70E944D1D8091E7
:104FF000DB0680939A068091D706863209F47EC03C
:1050000008F03FC08C3109F45FC08E3109F45CC0F8
:105010008A3009F443C08091D80680939706803582
:1050200009F449C3BF8DB23009F045C3813009F09E
:1050300079C0BE01635F7F4F85E097E00E94021E4A
:105040008CE0E5E0F7E0AFEAB6E001900D928A95DA
:10505000E1F731C330E1F312C1CE9BA1907480918E
:1050600097068150833038F4992309F4B7CE4BA1C9
:1050700040624BA3B3CE9111B1CE8BA180628BA3C2
:10508000ADCE8C3509F440C0863609F443C0883271
:1050900009F0C1CF6FEA76E087E033C067EE76E0D3
:1050A00089A50E94521D80919D06F9A5F813B3CFE2
:1050B0008CE0E7EEF6E0ABEBB6E001900D928A955E
:1050C000E1F70E944D1DA7CF8D8981608D8B2F8DBB
:1050D000222329F0B80185E097E00E94021EB80162
:1050E00087EE96E00E94021E8CE0E7EEF6E0AFEA63
:1050F000B6E001900D928A95E1F78DCF6FEA76E0E8
:1051000086E00E94521D87CF8CE0E5E0F7E0A7EC37
:10511000B6E0D3CFE7ECF6E08CE0DF011D928A9594
:10512000E9F7CFCF811105C08D8981608D8BB801E2
:1051300083CF8250823008F097C28091FC06909114
:10514000FD06A091FE06B091FF068F8F98A3A9A33C
:10515000BAA3A9AD94E0A99F70011124F701E1550C
:10516000F94FF8A7EFA397012951394F3AA729A77B
:10517000D9014D905D906D907C902081318142816C
:105180005381C301B2010E9458356DA77EA78FA736
:1051900098ABEBADB4E0EB9F800111249801215551
:1051A000394F3AAF29AFC8018951994F9CAF8BAFA6
:1051B000DC018D909D90AD90BC90F90120813181F2
:1051C00042815381C501B4010E94583569AB7AAB65
:1051D0008BAB9CAB77FA709477F87094D501C401CF
:1051E000B0588B8F9C8FAD8FBE8FF701EB5FF84F60
:1051F0002DA53EA54FA558A960817181828193811B
:105200000E9457356B017C01F801EB5FF84F29A92B
:105210003AA94BA95CA960817181828193810E9426
:1052200057354B015C01A7019601C301B2010E94F1
:10523000AF386DAB7EAB8FAB98AFA50194016B8D92
:105240007C8D8D8D9E8D0E94AF389B01AC016DA928
:105250007EA98FA998AD0E9458356DAB7EAB8FAB00
:1052600098AFA5019401C301B2010E94AF384B0170
:105270005C01A70196016B8D7C8D8D8D9E8D0E94AA
:10528000AF389B01AC01C501B4010E9457352DA96F
:105290003EA94FA958AD0E94D7356B017C019BA157
:1052A00092FF68C12DEB37E346E055EBC701B6012D
:1052B0000E946F3887FD0AC02BED3FE049EC50E4B7
:1052C000C701B6010E9457356B017C0180907B06B7
:1052D00090907C06A0907D06B0907E062F8D38A120
:1052E00049A15AA1CA01B9010E945835A5019401EA
:1052F0000E945735A50194010E94AF380E944E3993
:105300004B015C0120E030E040E05FE3C701B60103
:105310000E94AF382F8D38A149A15AA10E94AF3801
:105320009F77A50194010E9457360E943C370E9446
:10533000D0367EAB6DABDB01AB2B09F47ACE1D8989
:1053400090E080E00E94FF364B015C0113FF0EC02D
:10535000AC019B016D857E858F8598890E94AF3851
:105360006D877E878F87988B177F1D8BA501940192
:10537000C701B6010E9457366BA37CA38DA39EA3E1
:105380002296EFAD2297B4E0EB9FC00111248C016F
:105390000155194F8B5F984FD8012D913D914D913B
:1053A0005C91FC0160817181828193810E945735FB
:1053B000A50194010E94573629966CAF7DAF8EAF40
:1053C0009FAF29972BA13CA14DA15EA1CA01B901B4
:1053D0000E94AF389B01AC0160E070E080E090E497
:1053E0000E9457356B017C012BEA3AEA4AE25EE300
:1053F0006BA17CA18DA19EA10E94AF384B015C01E5
:1054000020E030E040E850E4C701B6010E94583582
:105410009B01AC01C501B4010E94AF3821966CAF6D
:105420007DAF8EAF9FAF219720E030E040E05FE39B
:10543000C701B6010E94AF3825966CAF7DAF8EAF25
:105440009FAF25971F8E22242394312CEDA9FEA90E
:10545000E215F30509F4EDCDFF8DFC3008F09EC098
:10546000A301920121966CAD7DAD8EAD9FAD2197CC
:105470000E94AF386B017C012B8D3C8D4D8D5E8D74
:1054800025966CAD7DAD8EAD9FAD25970E94AF3852
:105490009B01AC01C701B6010E9458357B016C012C
:1054A000A301920125966CAD7DAD8EAD9FAD259784
:1054B0000E94AF384B015C012B8D3C8D4D8D5E8D74
:1054C00021966CAD7DAD8EAD9FAD21970E94AF381A
:1054D0009B01AC01C501B4010E9457352B013C0171
:1054E0002F8D2F5F2F8F470156018B8E9C8EAD8E97
:1054F000BE8EA30192016DA57EA58FA598A90E94DD
:105500005835EFA1F8A560837183828393832B8D37
:105510003C8D4D8D5E8D69A97AA98BA99CA90E94AD
:105520005835A9ADBAAD6D937D938D939C93139728
:1055300029962CAD3DAD4EAD5FAD2997F801608148
:105540007181828193810E945835D8016D937D933A
:105550008D939C931397BE01635F7F4F8FEA96E014
:105560000E94021E8091320681116ACDBFEF2B1A74
:105570003B0A6CCF2DEB37E346E055E3C701B6019C
:105580000E944D3618160CF4A1CE2BED3FE049ECED
:1055900050E4C701B6010E94583596CEB10190E0A3
:1055A00080E00E94FF362BA13CA14DA15EA10E948C
:1055B000AF386B017C010E9452366B8F7C8F8D8FD0
:1055C0009E8FC701B6010E9440394B015C01A9A51D
:1055D000BAA5CD90DD90ED90FC90F7FAF094F7F835
:1055E000F094ABADBCAD8D919D910D90BC91A02D73
:1055F0008F8F98A3A9A3BAA3A70196016B8D7C8D69
:105600008D8D9E8D0E94AF382B013C012F8D38A1CE
:1056100049A15AA1C501B4010E94AF389B01AC0158
:10562000C301B2010E9458352B013C01A70196012C
:10563000C501B4010E94AF386B017C012F8D38A1E8
:1056400049A15AA16B8D7C8D8D8D9E8D0E94AF38A6
:105650009B01AC01C701B6010E9457356B8F7C8F4F
:105660008D8F9E8F1F8E45CF8D8984608D8B80910D
:105670003106823009F4E4CC0E941B1D8091320671
:10568000811119C0FBA1F071FF2E109236062BA1DB
:1056900023FB882780F90E94DC0286B180729091FA
:1056A0001706891719F184E00E943B020E94E9194C
:1056B00080E00E94DC028091DF0680939E068823B2
:1056C00011F40C94B31F0E941B1D80919E069091B3
:1056D0003106833009F04DC0923029F088E00E94F5
:1056E0004B020E94E91910929E06ECC8B80185E0B1
:1056F00097E00E94021E81E08093300682E00E94C3
:105700004B020E94E919809132068111D4CF809119
:1057100031068111F6CF80913006813031F5FF20BE
:1057200001F18CE0E8E1F6E0A4E2B6E001900D9230
:105730008A95E1F71092300680E00E94DC020E9418
:10574000E9190E94D80D0E94B3090E947A030E94B1
:10575000360980913606882309F472CC0E94AD097F
:10576000AACF85E00E943B02E5CF81E08093360618
:10577000E1CF81E08093970610929B0610929A06E3
:105780001092980610929D061092A00610929F0605
:1057900084E6809338068093390680933A069230E7
:1057A000A1F06BEB76E080E00E94661D882311F487
:1057B0000C9456220E944D1D40E050E0BA0180E05A
:1057C0000E94CF0A80E00E9460098AEC92E00E9469
:1057D000CB0781E692E00E94CB070E94310983CF7C
:1057E00081E00C94B31F82E00C94B31F88E10C9409
:1057F000B31F86E20C94B31F89E10C94B31F84E0BD
:105800000C94B31F8BE10C94B31F85E20C94B31F6F
:1058100080E20C94B31F82E20C94B31F84E20C94D8
:10582000B31F80E10C94B31F8FE00C94B31FCF9390
:10583000DF93C0E08C2F0E942C1D811114C01092A8
:1058400011078EE30E949E060E94BA068AE30E9418
:105850009E0687E00E94DD07C13019F4DF91CF91E9
:105860000895C1E0E7CF809111078823A9F30E9432
:10587000621ED82F8EE30E949E060E94BA068AE31B
:105880000E949E068D2F0E94E907E6CF1F920F927D
:105890000FB60F9211242F933F934F935F936F9303
:1058A0007F938F939F93AF93BF93CF93EF93FF9388
:1058B0000E94CB02C82F882389F081FD0E940B0E25
:1058C000C3FF05C080911306826080931306C0FF5A
:1058D00005C080911306806280931306FF91EF91BB
:1058E000CF91BF91AF919F918F917F916F915F9178
:1058F0004F913F912F910F900FBE0F901F901895D1
:105900001F920F920FB60F9211242F933F934F9334
:105910005F936F937F938F939F93AF93BF93EF9317
:10592000FF9380913106813069F0809114068111D6
:1059300009C00E94EE02882329F00E940B0E81E02C
:105940000E943B02FF91EF91BF91AF919F918F9188
:105950007F916F915F914F913F912F910F900FBE6B
:105960000F901F9018951F920F920FB60F9211244F
:105970008F939F939BB18091F2018C71937E892BC1
:105980008BB915BC9F918F910F900FBE0F901F90F8
:1059900018951F920F920FB60F9211240F931F9319
:1059A0002F933F934F935F936F937F938F939F9327
:1059B000AF93BF93EF93FF938091F401811101C2E4
:1059C0009BB180910402807E9F71892B8BB98BB132
:1059D000837E90910302892B8BB98091020286BD50
:1059E00082E085BD81E08093F40178948091160275
:1059F00090911702892B09F0AAC08091180290910A
:105A00004402981709F4CAC1E09118022E2F30E021
:105A100087E0E89FF0011124E65EFD4FF093170246
:105A2000E09316028281938190938900809388008D
:105A3000808191819093120280931102E481809180
:105A400013028E1761F1E093130282E1E89FF001E7
:105A50001124E95BFD4FF0931502E0931402848555
:105A60009585A685B785B695A795979587958093D3
:105A7000FD019093FE01A093FF01B093000280937B
:105A8000F9019093FA01A093FB01B093FC0180937C
:105A9000F5019093F601A093F701B093F801A0915E
:105AA0001402B091150250968C9150979091F30189
:105AB00089278093040287E0829FF001839FF00D85
:105AC0001124E65EFD4F25814D915D916D917C9194
:105AD0001397022E04C076956795579547950A94BB
